:020000040800F2
:1000000000500020311A0008091800080F180008D5
:10001000151800081B18000821180008000000002F
:100020000000000000000000000000002718000889
:1000300033180008000000003F1800084B180008A3
:10004000791A0008791A0008791A0008791A000844
:10005000791A0008791A000857180008651800086E
:10006000791A0008791A0008791A0008791A000824
:10007000791A0008791A0008791A0008791A000814
:10008000791A0008791A000875180008791A00080A
:10009000791A0008791A0008791A0008791A0008F4
:1000A000791A000891180008791A0008791A0008CE
:1000B000791A0008791A0008791A0008791A0008D4
:1000C000791A0008791A0008791A0008791A0008C4
:1000D000791A0008791A0008791A0008791A0008B4
:1000E000791A0008791A0008791A0008000000003F
:1000F0000000000000000000000000000000000000
:0C01000000000000000000005FF808F1A3
:1001100010B5054C237833B9044B13B10448AFF341
:1001200000800123237010BDDC01002000000000CE
:10013000FC70000808B5034B1BB103490348AFF33B
:10014000008008BD00000000E0010020FC700008F5
:10015000034613F8012B002AFBD1181A0138704707
:1001600081F0004102E000BF83F0004330B54FEA68
:1001700041044FEA430594EA050F08BF90EA020FD5
:100180001FBF54EA000C55EA020C7FEA645C7FEA68
:10019000655C00F0E2804FEA5454D4EB5555B8BF8B
:1001A0006D420CDD2C4480EA020281EA030382EAFC
:1001B000000083EA010180EA020281EA0303362D8E
:1001C00088BF30BD11F0004F4FEA01314FF4801C61
:1001D0004CEA113102D0404261EB410113F0004F73
:1001E0004FEA03334CEA133302D0524263EB43032A
:1001F00094EA050F00F0A780A4F10104D5F1200EC8
:100200000DDB02FA0EFC22FA05F2801841F1000122
:1002100003FA0EF2801843FA05F359410EE0A5F1F6
:1002200020050EF1200E012A03FA0EFC28BF4CF027
:10023000020C43FA05F3C01851EBE37101F00045DD
:1002400007D54FF0000EDCF1000C7EEB00006EEBEA
:100250000101B1F5801F1BD3B1F5001F0CD3490874
:100260005FEA30004FEA3C0C04F101044FEA4452CB
:1002700012F5800F80F09A80BCF1004F08BF5FEA52
:10028000500C50F1000041EB045141EA050130BD32
:100290005FEA4C0C404141EB0101013C28BFB1F544
:1002A000801FE9D291F0000F04BF01460020B1FA8F
:1002B00081F308BF2033A3F10B03B3F120020CDA62
:1002C0000C3208DD02F1140CC2F10C0201FA0CF040
:1002D00021FA02F10CE002F11402D8BFC2F1200CA5
:1002E00001FA02F120FA0CFCDCBF41EA0C0190405B
:1002F000E41AA2BF01EB0451294330BD6FEA0404A4
:100300001F3C1CDA0C340EDC04F11404C4F120028E
:1003100020FA04F001FA02F340EA030021FA04F3A0
:1003200045EA030130BDC4F10C04C4F1200220FAF7
:1003300002F001FA04F340EA0300294630BD21FA35
:1003400004F0294630BD94F0000F83F4801306BFFB
:1003500081F480110134013D4EE77FEA645C18BFEF
:100360007FEA655C29D094EA050F08BF90EA020F86
:1003700005D054EA000C04BF1946104630BD91EA7E
:10038000030F1EBF0021002030BD5FEA545C05D181
:100390004000494128BF41F0004130BD14F58004C0
:1003A0003CBF01F5801130BD01F0004545F0FE4134
:1003B00041F470014FF0000030BD7FEA645C1ABF69
:1003C000194610467FEA655C1CBF0B46024650EAA0
:1003D000013406BF52EA033591EA030F41F40021CC
:1003E00030BD00BF90F0000F04BF0021704730B552
:1003F0004FF4806404F132044FF000054FF0000127
:1004000050E700BF90F0000F04BF0021704730B5E7
:100410004FF4806404F1320410F0004548BF4042BC
:100420004FF000013EE700BF42004FEAE2014FEA11
:1004300031014FEA02701FBF12F07F4393F07F4FEC
:1004400081F06051704732F07F4208BF704793F0EF
:100450007F4F04BF41F40021704730B54FF4607402
:1004600001F0004521F000411CE700BF50EA010205
:1004700008BF704730B54FF000050AE050EA0102AE
:1004800008BF704730B511F0004502D5404261EB1E
:1004900041014FF4806404F132045FEA915C3FF45F
:1004A000D8AE4FF003025FEADC0C18BF03325FEAFC
:1004B000DC0C18BF033202EBDC02C2F1200300FAAD
:1004C00003FC20FA02F001FA03FE40EA0E0021FAD2
:1004D00002F11444BDE600BF70B54FF0FF0C4CF4C0
:1004E000E06C1CEA11541DBF1CEA135594EA0C0F72
:1004F00095EA0C0F00F0DEF82C4481EA030621EAAD
:100500004C5123EA4C5350EA013518BF52EA0335E7
:1005100041F4801143F4801338D0A0FB02CE4FF099
:100520000005E1FB02E506F00042E0FB03E54FF0C9
:100530000006E1FB03569CF0000F18BF4EF0010EC1
:10054000A4F1FF04B6F5007F64F5407404D25FEABD
:100550004E0E6D4146EB060642EAC62141EA555170
:100560004FEAC52040EA5E504FEACE2EB4F1FD0CB2
:1005700088BFBCF5E06F1ED8BEF1004F08BF5FEA30
:10058000500E50F1000041EB045170BD06F00046E2
:1005900046EA010140EA020081EA0301B4EB5C048F
:1005A000C2BFD4EB0C0541EA045170BD41F4801187
:1005B0004FF0000E013C00F3AB8014F1360FDEBFAC
:1005C000002001F0004170BDC4F10004203C35DA88
:1005D0000C341BDC04F11404C4F1200500FA05F30B
:1005E00020FA04F001FA05F240EA020001F00042AC
:1005F00021F0004110EBD37021FA04F642EB060122
:100600005EEA430E08BF20EAD37070BDC4F10C044B
:10061000C4F1200500FA04F320FA05F001FA04F20F
:1006200040EA020001F0004110EBD37041F10001FB
:100630005EEA430E08BF20EAD37070BDC4F1200506
:1006400000FA05F24EEA020E20FA04F301FA05F26E
:1006500043EA020321FA04F001F0004121FA04F216
:1006600020EA020000EBD3705EEA430E08BF20EAE6
:10067000D37070BD94F0000F0FD101F00046400020
:1006800041EB010111F4801F08BF013CF7D041EAA2
:10069000060195F0000F18BF704703F000465200A6
:1006A00043EB030313F4801F08BF013DF7D043EA77
:1006B0000603704794EA0C0F0CEA135518BF95EA2D
:1006C0000C0F0CD050EA410618BF52EA4306D1D1B4
:1006D00081EA030101F000414FF0000070BD50EAD3
:1006E000410606BF1046194652EA430619D094EA5D
:1006F0000C0F02D150EA013613D195EA0C0F05D147
:1007000052EA03361CBF104619460AD181EA03019A
:1007100001F0004141F0FE4141F470014FF0000052
:1007200070BD41F0FE4141F4780170BD70B54FF0ED
:10073000FF0C4CF4E06C1CEA11541DBF1CEA13556D
:1007400094EA0C0F95EA0C0F00F0A7F8A4EB05044F
:1007500081EA030E52EA03354FEA013100F0888046
:100760004FEA03334FF0805545EA131343EA12630F
:100770004FEA022245EA111545EA10654FEA0026C4
:100780000EF000419D4208BF964244F1FD0404F57D
:10079000407402D25B084FEA3202B61A65EB0305D9
:1007A0005B084FEA32024FF480104FF4002CB6EB96
:1007B000020E75EB030E22BFB61A754640EA0C0016
:1007C0005B084FEA3202B6EB020E75EB030E22BF56
:1007D000B61A754640EA5C005B084FEA3202B6EB97
:1007E000020E75EB030E22BFB61A754640EA9C0056
:1007F0005B084FEA3202B6EB020E75EB030E22BF26
:10080000B61A754640EADC0055EA060E18D04FEAE3
:10081000051545EA16754FEA06164FEAC30343EA83
:1008200052734FEAC2025FEA1C1CC0D111F4801F50
:100830000BD141EA00014FF000004FF0004CB6E749
:1008400011F4801F04BF01430020B4F1FD0C88BFE8
:10085000BCF5E06F3FF6AFAEB5EB030C04BFB6EBF3
:10086000020C5FEA500C50F1000041EB045170BDE6
:100870000EF0004E4EEA113114EB5C04C2BFD4EB13
:100880000C0541EA045170BD41F480114FF0000E97
:10089000013C90E645EA060E8DE60CEA135594EA13
:1008A0000C0F08BF95EA0C0F3FF43BAF94EA0C0F16
:1008B0000AD150EA01347FF434AF95EA0C0F7FF48B
:1008C00025AF104619462CE795EA0C0F06D152EADF
:1008D00003353FF4FDAE1046194622E750EA4106C3
:1008E00018BF52EA43067FF4C5AE50EA41047FF4D4
:1008F0000DAF52EA43057FF4EBAE12E74FF0FF3C39
:1009000006E000BF4FF0010C02E000BF4FF0010C09
:100910004DF804CD4FEA410C7FEA6C5C4FEA430C82
:1009200018BF7FEA6C5C1BD001B050EA410C0CBFD1
:1009300052EA430C91EA030F02BF90EA020F002033
:10094000704710F1000F91EA030F58BF994208BF9A
:1009500090422CBFD8176FEAE37040F00100704757
:100960004FEA410C7FEA6C5C02D150EA013C07D1AE
:100970004FEA430C7FEA6C5CD6D152EA033CD3D0F9
:100980005DF8040B704700BF8446104662468C46F3
:100990001946634600E000BF01B5FFF7B7FF002826
:1009A00048BF10F1000F01BD4DF808EDFFF7F4FF4F
:1009B0000CBF012000205DF808FB00BF4DF808EDDA
:1009C000FFF7EAFF34BF012000205DF808FB00BFFD
:1009D0004DF808EDFFF7E0FF94BF012000205DF81F
:1009E00008FB00BF4DF808EDFFF7CEFF94BF0120D4
:1009F00000205DF808FB00BF4DF808EDFFF7C4FFCD
:100A000034BF012000205DF808FB00BF4FEA410C15
:100A10007FEA6C5C02D150EA013C0AD14FEA430CF8
:100A20007FEA6C5C02D152EA033C02D14FF0000035
:100A300070474FF0010070474FEA410212F5001273
:100A400015D211D56FF47873B3EB625212D94FEA15
:100A5000C12343F0004343EA505311F0004F23FAFF
:100A600002F018BF404270474FF00000704750EA54
:100A7000013005D111F0004008BF6FF00040704711
:100A80004FF00000704700BF4FEA4102B2F1E0436F
:100A900024BFB3F5001CDCF1FE5C0DD901F0004C65
:100AA0004FEAC0024CEA5070B2F1004F40EB8300B5
:100AB00008BF20F00100704711F0804F21D113F1E1
:100AC0003872BCBF01F00040704741F480114FEA1A
:100AD0005252C2F11802C2F1200C10FA0CF320FAA3
:100AE00002F018BF40F001004FEAC1234FEAD323C0
:100AF00003FA0CFC40EA0C0023FA02F34FEA43032A
:100B0000CCE77FEA625307D150EA01331EBF4FF0B2
:100B1000FE4040F44000704701F0004040F0FE40CD
:100B200040F40000704700BF4FF0FF3C06E000BFFC
:100B30004FF0010C02E000BF4FF0010C4DF804CD66
:100B40004FEA40024FEA41037FEA226C18BF7FEA76
:100B5000236C11D001B052EA530C18BF90EA010F78
:100B600058BFB2EB030088BFC81738BF6FEAE17007
:100B700018BF40F0010070477FEA226C02D15FEAA3
:100B8000402C05D17FEA236CE4D15FEA412CE1D00F
:100B90005DF8040B704700BF844608466146FFE7D6
:100BA0000FB5FFF7C9FF002848BF10F1000F0FBDB8
:100BB0004DF808EDFFF7F4FF0CBF012000205DF8B1
:100BC00008FB00BF4DF808EDFFF7EAFF34BF012036
:100BD00000205DF808FB00BF4DF808EDFFF7E0FFCF
:100BE00094BF012000205DF808FB00BF4DF808ED20
:100BF000FFF7D2FF94BF012000205DF808FB00BF83
:100C00004DF808EDFFF7C8FF34BF012000205DF864
:100C100008FB00BF80B586B002AF0346FB71FB79CD
:100C200023F00F03FB73FB791B01BB73FB7B43F0CA
:100C30000C03DBB23B72FB7B43F00803DBB27B723D
:100C4000BB7B43F00C03DBB2BB72BB7B43F00803FE
:100C5000DBB2FB7207F108026423009304234E21E8
:100C6000034801F0C5FF00BF1037BD4680BD00BF7F
:100C70004402002080B586B002AF0346FB71FB79C9
:100C800023F00F03FB73FB791B01BB73FB7B43F06A
:100C90000D03DBB23B72FB7B43F00903DBB27B72DB
:100CA000BB7B43F00D03DBB2BB72BB7B43F009039C
:100CB000DBB2FB7207F108026423009304234E2188
:100CC000034801F095FF00BF1037BD4680BD00BF4F
:100CD0004402002080B500AF3320FFF79BFF322095
:100CE000FFF798FF322000F02BFF2820FFF792FF3C
:100CF000322000F025FF0120FFF78CFF322000F0AA
:100D00001FFF0620FFF786FF322000F019FF0C209E
:100D1000FFF780FF322000F013FF0220FFF77AFF79
:100D2000322000F00DFF8020FFF774FF00BF80BD70
:100D300080B582B000AF786006E07B685A1C7A60AC
:100D40001B781846FFF796FF7B681B78002BF4D1C1
:100D500000BF00BF0837BD4680BD80B584B000AF7E
:100D6000786039607B68012B08D17B68DAB23B6818
:100D7000DBB21344DBB27F33FB7308E03B68DBB2CA
:100D80004033DBB25BB263F07F035BB2FB73FB7B90
:100D90001846FFF73FFF00BF1037BD4680BD00007B
:100DA00080B582B000AF78607B681A680D4B1B6815
:100DB0009A4206D10B4801F075F803469AB20A4BE5
:100DC0001A807B681A68094B1B689A4206D107484B
:100DD00001F068F803469AB2034B5A8000BF083707
:100DE000BD4680BD9C020020D002002014020020DD
:100DF00080B584B000AF78607B681A685E4B1B6872
:100E00009A4240F086805D4B1B685D491846FFF7AB
:100E1000D9FE0346002B23D002210120FFF79DFFBE
:100E20005848FFF785FF01224FF48041564801F0F2
:100E30006BFD00221021554801F066FD0022402183
:100E4000524801F061FD00224FF400414E4801F08C
:100E50005BFD00224FF400514B4801F055FD58E076
:100E6000464B1B684A491846FFF7ACFE0346002B69
:100E70002CD002210120FFF770FF4648FFF758FFF2
:100E800000224FF40041404801F03EFD00224FF4A3
:100E900080413D4801F038FD01224FF400513A48AD
:100EA00001F032FD00221021384801F02DFD002212
:100EB0004021364801F028FD374BFB6002E0FB681B
:100EC000013BFB60FB68002BF9DC22E002210120E2
:100ED000FFF743FF3148FFF72BFF01224FF400419A
:100EE000294801F011FD01221021284801F00CFDD4
:100EF00001224021254801F007FD00224FF48041E6
:100F0000214801F001FD00224FF400511E4801F07C
:100F1000FBFC234B1B684FF080411846FFF770FE27
:100F20000346002B00D122E002210120FFF715FF2C
:100F30001C48FFF7FDFE00224FF48041124801F0EB
:100F4000E3FC01221021114801F0DEFC01224021C6
:100F50000E4801F0D9FC00224FF400410A4801F08C
:100F6000D3FC00224FF40051074801F0CDFC00BF34
:100F70001037BD4680BD00BFD4020020980200207B
:100F800000000C42187100080010014000080140E8
:100F9000000034422871000840420F0038710008F8
:100FA000CC0200204871000880B584B000AF034631
:100FB000FB80FB88012B2ED102210120FFF7CDFE03
:100FC0002048FFF7B5FE012210211F4801F09CFCCC
:100FD000012240211C4801F097FC1C4BFB6000BF24
:100FE000FB685A1EFA60002BFAD100224FF4005120
:100FF000174801F089FC00221021134801F084FCFD
:1010000000224021104801F07FFC124B01225A615E
:10101000062001F0E6FAFB88022B0FD100221021F6
:10102000094801F071FC00224021074801F06CFCE6
:10103000084B02225A61072001F0D3FA00BF103793
:10104000BD4680BD387100080008014000E1F5058B
:10105000001001400004014080B500AF00F00EFD1B
:1010600000F0DCF800F032FA00F034F900F0AEF9EC
:1010700000F0DAF900F06CF9FFF72CFE00210120F6
:10108000FFF76BFE5248FFF753FE00210220FFF7E7
:1010900064FE5048FFF74CFE40F6B83000F050FDBB
:1010A00000210120FFF759FE4B48FFF741FE322097
:1010B00000F046FD00210220FFF74FFE4748FFF7F2
:1010C00037FE0A210220FFF748FE4548FFF730FEB1
:1010D000444802F09FFD444800F02EFE434800F0D3
:1010E0002BFE434B1B881846FFF78CF936A3D3E938
:1010F0000023FFF7F1F902460B46104619464FF060
:1011000000023C4BFFF7E8F902460B461046194631
:101110004FF00002384BFFF709FB02460B46104622
:101120001946FFF7B1FC0346344A1360304B5B8825
:101130001846FFF767F94FF00002314BFFF7CCF983
:1011400002460B46104619464FF000022A4BFFF7A5
:10115000EDFA02460B4610461946FFF795FC03468A
:10116000284A1360642000F0EBFC244B1B681846EF
:10117000FFF75AF902460B462349244803F086FD3F
:1011800002210220FFF7E9FD2048FFF7D1FD1D4BAA
:101190001B681F491846FFF733FD0346002B07D095
:1011A0000F210220FFF7D9FD1A48FFF7C1FD06E025
:1011B0000F210220FFF7D1FD1748FFF7B9FD4FF4CB
:1011C0007A7000F0BDFC8CE7C3F5285C8FC2094043
:1011D000587100086C710008807100088471000863
:1011E00088710008D40200209C0200201402002014
:1011F000D0020020000059400000B04098020020BA
:1012000000001440CC02002090710008040200206D
:1012100000004040987100089C71000880B594B0AF
:1012200000AF07F1280328220021184603F0C6F872
:1012300007F1140300221A605A609A60DA601A619A
:101240003B1D00221A605A609A60DA600123BB627B
:101250004FF48033FB6200233B630123BB63022313
:101260007B644FF48033BB644FF4E013FB6407F1FD
:101270002803184601F0C2FF0346002B01D000F0FE
:10128000B1F90F237B610223BB610023FB614FF4A3
:1012900080633B6200237B6207F11403022118463E
:1012A00002F02CFA0346002B01D000F09BF9022338
:1012B0007B604FF40043FB603B1D184602F0A4FB2B
:1012C0000346002B01D000F08DF900BF5037BD461A
:1012D00080BD000080B584B000AF3B1D00221A60C5
:1012E0005A609A60184B194A1A60174B00229A608C
:1012F000154B01221A73144B00221A75124B4FF42E
:101300006022DA61104B00225A600F4B01221A61F1
:101310000D4800F039FC0346002B01D000F062F9C3
:1013200000237B600123BB600723FB603B1D194644
:10133000054800F08FFE0346002B01D000F052F963
:1013400000BF1037BD4680BD9C0200200024014034
:1013500080B584B000AF3B1D00221A605A609A60CD
:10136000184B194A1A60174B00229A60154B01223C
:101370001A73144B00221A75124B4FF46022DA6173
:10138000104B00225A600F4B01221A610D4800F0E9
:10139000FBFB0346002B01D000F024F901237B6006
:1013A0000123BB600723FB603B1D1946054800F085
:1013B00051FE0346002B01D000F014F900BF103796
:1013C000BD4680BD140200200028014080B500AF5A
:1013D000124B134A1A60114B124A5A600F4B0022EB
:1013E0009A600E4B0022DA600C4B4FF480421A6177
:1013F0000A4B00225A61094B00229A61074B0022D6
:10140000DA61064B00221A62044801F0ADFA034685
:10141000002B01D000F0E6F800BF80BD44020020A0
:1014200000540040A086010080B586B000AF07F1EF
:10143000080300221A605A609A60DA603B46002274
:101440001A605A601F4B204A1A601E4B41F63F72C9
:101450005A601C4B00229A601A4B41F28732DA60C4
:10146000184B00221A61174B00225A61154B0022BB
:101470009A61144802F07EFB0346002B01D000F075
:10148000B1F84FF48053BB6007F1080319460D48CB
:1014900002F01AFD0346002B01D000F0A3F8002350
:1014A0003B6000237B603B461946064802F0ECFE99
:1014B0000346002B01D000F095F800BF1837BD4659
:1014C00080BD00BFD4020020002C014080B588B050
:1014D00000AF07F1100300221A605A609A60DA60C8
:1014E0003B4B9B693A4A43F010039361384B9B692D
:1014F00003F01003FB60FB68354B9B69344A43F0F3
:1015000020039361324B9B6903F02003BB60BB68EF
:101510002F4B9B692E4A43F0040393612C4B9B692C
:1015200003F004037B607B68294B9B69284A43F0E6
:1015300008039361264B9B6903F008033B603B68FB
:1015400000224FF46041234801F0DEF900225021CF
:10155000214801F0D9F94FF460433B6101237B61DD
:101560000023BB610223FB6107F1100319461948F0
:1015700001F046F850233B6101237B610023BB61EE
:101580000223FB6107F110031946134801F038F8F4
:1015900003233B61114B7B610123BB6107F1100306
:1015A00019460F4801F02CF800220221062000F015
:1015B000E2FF062000F0FBFF00220121072000F0DF
:1015C000DAFF072000F0F3FF00BF2037BD4680BDE3
:1015D00000100240001001400008014000002110EE
:1015E000000C014080B400AF72B600BFFEE70000FF
:1015F00080B485B000AF154B9B69144A43F00103DA
:101600009361124B9B6903F00103BB60BB680F4BF6
:10161000DB690E4A43F08053D3610C4BDB6903F066
:1016200080537B607B680A4B5B68FB60FB6823F040
:10163000E063FB60FB6843F00073FB60044AFB68F7
:10164000536000BF1437BD4680BC70470010024095
:101650000000014080B58AB000AF786007F1180340
:1016600000221A605A609A60DA607B681B68304A10
:1016700093422AD12F4B9B692E4A43F40073936106
:101680002C4B9B6903F400737B617B69294B9B693D
:10169000284A43F004039361264B9B6903F004033B
:1016A0003B613B690123BB610323FB6107F1180325
:1016B0001946214800F0A4FF00220321122000F067
:1016C0005AFF122000F073FF2EE07B681B681B4A54
:1016D000934229D1174B9B69164A43F48063936167
:1016E000144B9B6903F48063FB60FB68114B9B699F
:1016F000104A43F0040393610E4B9B6903F004030B
:10170000BB60BB680223BB610323FB6107F11803C5
:101710001946094800F074FF00220321122000F04E
:101720002AFF122000F043FF00BF2837BD4680BDCE
:101730000024014000100240000801400028014040
:1017400080B588B000AF786007F1100300221A60FE
:101750005A609A60DA607B681B68154A934223D10D
:10176000144B9B69134A43F008039361114B9B6927
:1017700003F00803FB60FB68C0233B6112237B611D
:101780000323FB6107F1100319460B4800F038FFF3
:10179000084BDB69074A43F40013D361054BDB694F
:1017A00003F40013BB60BB6800BF2037BD4680BD9B
:1017B0000054004000100240000C014080B584B08D
:1017C00000AF78607B681B680D4A934213D10D4BC4
:1017D0009B690C4A43F4006393610A4B9B6903F4D1
:1017E0000063FB60FB6800220321192000F0C3FEA8
:1017F000192000F0DCFE00BF1037BD4680BD00BFE1
:10180000002C01400010024080B400AFFEE780B41D
:1018100000AFFEE780B400AFFEE780B400AFFEE7A4
:1018200080B400AFFEE780B400AF00BFBD4680BC0F
:10183000704780B400AF00BFBD4680BC704780B425
:1018400000AF00BFBD4680BC704780B500AF00F060
:101850005BF900BF80BD80B500AF012001F06CF8DE
:1018600000BF80BD80B500AF022001F065F800BF69
:1018700080BD000080B500AF034800F01FFB0348A7
:1018800000F01CFB00BF80BD9C0200201402002061
:1018900080B500AF024802F00FFA00BF80BD00BF64
:1018A000D402002080B400AF01231846BD4680BC9E
:1018B000704780B582B000AF7860396002F054FDA7
:1018C000034616221A604FF0FF3318460837BD460C
:1018D00080BD80B582B000AF78604FF0FF3178688E
:1018E000FFF7E7FFFEE780B586B000AFF860B960AC
:1018F0007A6000237B610AE0AFF300800146BB6899
:101900005A1CBA60CAB21A707B6901337B617A696A
:101910007B689A42F0DB7B6818461837BD4680BD6D
:1019200080B586B000AFF860B9607A6000237B6153
:1019300009E0BB685A1CBA601B781846AFF30080F8
:101940007B6901337B617A697B689A42F1DB7B6852
:1019500018461837BD4680BD80B483B000AF7860AC
:101960004FF0FF3318460C37BD4680BC704780B43B
:1019700083B000AF786039603B684FF400525A6022
:10198000002318460C37BD4680BC704780B483B036
:1019900000AF7860012318460C37BD4680BC704705
:1019A00080B485B000AFF860B9607A600023184653
:1019B0001437BD4680BC704780B586B000AF7860F4
:1019C000144A154BD31A7B617B693B61134B1B682F
:1019D000002B02D1114B124A1A60104B1A687B6817
:1019E00013443A699A4207D202F0BEFC03460C2225
:1019F0001A604FF0FF3309E0084B1B68FB60074B90
:101A00001A687B681344054A1360FB681846183748
:101A1000BD4680BD0050002000040000F8010020F9
:101A20003003002080B400AF00BFBD4680BC7047CB
:101A30000C480D490D4A002302E0D458C450043329
:101A4000C4188C42F9D30A4A0A4C002301E01360FF
:101A50000432A242FBD3FFF7E5FF02F08BFCFFF755
:101A6000FBFA704700000020DC010020B47500087C
:101A7000DC01002030030020FEE7000080B500AF4D
:101A8000084B1B68074A43F010031360032000F063
:101A900067FD0F2000F008F8FFF7AAFD00231846A5
:101AA00080BD00BF0020024080B582B000AF7860EA
:101AB000124B1A68124B1B7819464FF47A73B3FB1A
:101AC000F1F3B2FBF3F3184600F07FFD0346002B61
:101AD00001D001230EE07B680F2B0AD80022796821
:101AE0004FF0FF3000F047FD064A7B68136000238B
:101AF00000E0012318460837BD4680BD00000020E5
:101B0000080000200400002080B400AF054B1B78C3
:101B10001A46054B1B681344034A136000BFBD46B9
:101B200080BC7047080000201C03002080B400AF78
:101B3000024B1B681846BD4680BC70471C03002042
:101B400080B584B000AF7860FFF7F0FFB8607B68C5
:101B5000FB60FB68B3F1FF3F05D00A4B1B781A46C8
:101B6000FB681344FB6000BFFFF7E0FF0246BB6861
:101B7000D31AFA689A42F7D800BF00BF1037BD46A3
:101B800080BD00BF0800002080B586B000AF78603F
:101B90000023FB7500233B610023BB600023FB6037
:101BA0007B68002B01D10123BEE07B689B68002B82
:101BB0007B689B6A002B09D17B680022DA627B6814
:101BC000002283F824207868FFF744FD786800F04D
:101BD00093FB0346FB757B689B6A03F01003002BA5
:101BE00040F09980FB7D002B40F095807B689B6ADC
:101BF00023F4885323F0020343F002027B689A62C5
:101C00007B685A687B68DB691A437B681B7B5B00D7
:101C10001343BA681343BB607B689B68B3F5807F4E
:101C200003D07B689B68012B02D14FF4807300E0E6
:101C300000233A6913433B617B681B7D012B19D15B
:101C40007B681B7B002B09D17B689B69013B5A0396
:101C50003B69134343F400633B610BE07B689B6A81
:101C600043F020027B689A627B68DB6A43F00102E2
:101C70007B68DA627B681B685B6823F469417B6878
:101C80001B683A690A435A607B681B689A68284B4C
:101C900013407A681268B9680B4393607B689B684D
:101CA000B3F5807F03D07B689B68012B04D17B68F0
:101CB0001B69013B1B05FB607B681B68DB6A23F427
:101CC00070017B681B68FA680A43DA627B681B68EC
:101CD0009A68184B1340BA689A420BD17B6800226D
:101CE000DA627B689B6A23F0030343F001027B689E
:101CF0009A6218E07B689B6A23F0120343F010029B
:101D00007B689A627B68DB6A43F001027B68DA6277
:101D10000123FB7507E07B689B6A43F010027B6838
:101D20009A620123FB75FB7D18461837BD4680BDBE
:101D3000FDF7E1FFFE0E1FFF80B584B000AF7860B5
:101D40000023FB737B6893F82430012B01D102231D
:101D5000A0E07B68012283F82420786800F072FA02
:101D60000346FB73FB7B002B40F08F807B689B6AF4
:101D700023F4706323F0010343F480727B689A625A
:101D80007B681B68454A934205D1454B5B6803F469
:101D90007023002B15D17B689B6A23F480127B682B
:101DA0009A627B681B685B6803F48063002B26D013
:101DB0007B689B6A23F4405343F480527B689A62A9
:101DC0001DE07B689B6A43F480127B689A627B68A3
:101DD0001B68334A934204D07B681B682F4A9342A6
:101DE0000DD12F4B5B6803F48063002B07D07B6819
:101DF0009B6A23F4405343F480527B689A627B6869
:101E00009B6A03F48053002B06D07B68DB6A23F0C7
:101E100006027B68DA6202E07B680022DA627B6895
:101E2000002283F824207B681B686FF002021A608E
:101E30007B681B685A687B681B6842F020025A6006
:101E40007B681B689B6803F46023B3F5602F13D194
:101E50007B681B68114A934205D1114B5B6803F400
:101E60007023002B08D17B681B689A687B681B680D
:101E700042F4A0029A600CE07B681B689A687B6859
:101E80001B6842F480129A6003E07B68002283F8AA
:101E90002420FB7B18461037BD4680BD002801403A
:101EA0000024014080B483B000AF78607B681B6879
:101EB000DB6C18460C37BD4680BC704780B582B0DD
:101EC00000AF78607B681B685B6803F02003202B01
:101ED00040D17B681B681B6803F00203022B39D1D9
:101EE0007B689B6A03F01003002B05D17B689B6A1B
:101EF00043F400727B689A627B681B689B6803F4FA
:101F00006023B3F5602F1DD17B681B7B002B19D19B
:101F10007B681B685A687B681B6822F020025A6045
:101F20007B689B6A23F480727B689A627B689B6AF9
:101F300003F48053002B05D17B689B6A43F00102B8
:101F40007B689A627868FEF72BFF7B681B686FF0EE
:101F500012021A607B681B685B6803F08003802BA9
:101F60004FD17B681B681B6803F00403042B48D126
:101F70007B689B6A03F01003002B05D17B689B6A8A
:101F800043F400527B689A627B681B689B6803F489
:101F9000E043B3F5E04F12D07B681B685B6803F445
:101FA0008063002B25D17B681B689B6803F460234A
:101FB000B3F5602F1DD17B681B7B002B19D17B688B
:101FC0001B685A687B681B6822F080025A607B6835
:101FD0009B6A23F480527B689A627B689B6A03F455
:101FE0008073002B05D17B689B6A43F001027B68FC
:101FF0009A62786800F0C1F97B681B686FF00C0288
:102000001A607B681B685B6803F04003402B14D1A7
:102010007B681B681B6803F00103012B0DD17B68F3
:102020009B6A43F480327B689A62786800F009F812
:102030007B681B686FF001021A6000BF0837BD465D
:1020400080BD80B483B000AF786000BF0C37BD4660
:1020500080BC704780B485B000AF786039600023E1
:10206000FB730023BB607B6893F82430012B01D104
:102070000223DCE07B68012283F824203B685B6854
:10208000062B1CD87B681B68596B3B685A68134643
:102090009B001344053B1F2202FA03F3DB43194064
:1020A0003B6818683B685A6813469B001344053B1D
:1020B00000FA03F27B681B680A435A633CE03B6802
:1020C0005B680C2B1CD87B681B68196B3B685A68D3
:1020D00013469B001344233B1F2202FA03F3DB4306
:1020E00019403B6818683B685A6813469B001344C4
:1020F000233B00FA03F27B681B680A431A631BE068
:102100007B681B68D96A3B685A6813469B00134476
:10211000413B1F2202FA03F3DB4319403B68186876
:102120003B685A6813469B001344413B00FA03F294
:102130007B681B680A43DA623B681B68092B1CD961
:102140007B681B68D9683B681A6813465B001344B8
:102150001E3B072202FA03F3DB4319403B689868F1
:102160003B681A6813465B0013441E3B00FA03F2F7
:102170007B681B680A43DA6019E07B681B68196991
:102180003B681A6813465B001344072202FA03F304
:10219000DB4319403B6898683B681A6813465B004C
:1021A000134400FA03F27B681B680A431A613B6818
:1021B0001B68102B03D03B681B68112B32D17B6846
:1021C0001B681D4A934225D17B681B689B6803F4FA
:1021D0000003002B26D17B681B689A687B681B680C
:1021E00042F400029A603B681B68102B1AD1134B13
:1021F0001B68134AA2FB03239A0C13469B0013444B
:102200005B00BB6002E0BB68013BBB60BB68002BAE
:10221000F9D107E07B689B6A43F020027B689A62F1
:102220000123FB737B68002283F82420FB7B184684
:102230001437BD4680BC70470024014000000020D8
:1022400083DE1B4380B584B000AF78600023FB6061
:102250000023BB607B681B689B6803F00103012BB4
:1022600040D07B681B689A687B681B6842F001025B
:102270009A601F4B1B681F4AA2FB03239B0CBB6089
:1022800002E0BB68013BBB60BB68002BF9D1FFF7E4
:102290004DFCF8601FE0FFF749FC0246FB68D31ACB
:1022A000022B18D97B681B689B6803F00103012B84
:1022B00011D07B689B6A43F010027B689A627B684E
:1022C000DB6A43F001027B68DA627B68002283F8F4
:1022D0002420012307E07B681B689B6803F001034F
:1022E000012BD8D1002318461037BD4680BD00BF52
:1022F0000000002083DE1B4380B584B000AF78600F
:102300000023FB607B681B689B6803F00103012BC3
:102310002ED17B681B689A687B681B6822F00102DB
:102320009A60FFF703FCF8601BE0FFF7FFFB024633
:10233000FB68D31A022B14D97B681B689B6803F0D7
:102340000103012B0DD17B689B6A43F010027B686F
:102350009A627B68DB6A43F001027B68DA620123E0
:1023600007E07B681B689B6803F00103012BDCD04E
:10237000002318461037BD4680BD80B483B000AF3F
:10238000786000BF0C37BD4680BC704780B485B014
:1023900000AF78607B6803F00703FB600C4BDB68E1
:1023A000BB60BA684FF6FF031340BB60FB681A02BC
:1023B000BB68134343F0BF6343F40033BB60044A7C
:1023C000BB68D36000BF1437BD4680BC704700BFF8
:1023D00000ED00E080B400AF044BDB681B0A03F0A3
:1023E00007031846BD4680BC704700BF00ED00E003
:1023F00080B483B000AF0346FB7197F90730002B20
:102400000BDBFB7903F01F02064997F907305B09E4
:10241000012000FA02F241F8232000BF0C37BD462C
:1024200080BC704700E100E080B483B000AF034699
:10243000FB7197F90730002B0CDBFB7903F01F02CF
:10244000074997F907305B09012000FA02F260336F
:1024500041F8232000BF0C37BD4680BC704700BF49
:1024600000E100E080B483B000AF03463960FB7147
:1024700097F90730002B0ADB3B68DAB20C4997F971
:1024800007301201D2B20B4483F800230AE03B6804
:10249000DAB20849FB7903F00F03043B1201D2B210
:1024A0000B441A7600BF0C37BD4680BC704700BF96
:1024B00000E100E000ED00E080B489B000AFF8601A
:1024C000B9607A60FB6803F00703FB61FB69C3F145
:1024D0000703042B28BF0423BB61FB690433062BCD
:1024E00002D9FB69033B00E000237B614FF0FF3220
:1024F000BB6902FA03F3DA43BB681A407B699A406E
:102500004FF0FF317B6901FA03F3D9437B680B403D
:10251000134318462437BD4680BC704780B582B04F
:1025200000AF78607B68013BB3F1807F01D301236A
:102530000FE00A4A7B68013B53600F214FF0FF30E8
:10254000FFF790FF054B00229A60044B07221A60A8
:10255000002318460837BD4680BD00BF10E000E0EC
:1025600080B582B000AF78607868FFF70FFF00BFDA
:102570000837BD4680BD80B586B000AF0346B96060
:102580007A60FB7300237B61FFF724FF78617A6830
:10259000B9687869FFF790FF024697F90F30114646
:1025A0001846FFF75FFF00BF1837BD4680BD80B5F6
:1025B00082B000AF0346FB7197F907301846FFF76A
:1025C00017FF00BF0837BD4680BD80B582B000AFA1
:1025D00078607868FFF7A2FF034618460837BD46C3
:1025E00080BD80B582B000AF0346FB7197F907301C
:1025F0001846FFF719FF00BF0837BD4680BD000031
:1026000080B48BB000AF7860396000237B62002318
:102610003B6269E101227B6A02FA03F3FB613B68DA
:102620001B68FA691340BB61BA69FB699A4240F0C2
:1026300058813B685B689A4A93425ED0984A9342BD
:1026400075D8984A934258D0964A93426FD8964A82
:10265000934252D0944A934269D8944A93424CD0C0
:10266000924A934263D8924A934246D0904A934208
:102670005DD8122B2AD8122B59D801A252F823F078
:10268000FB260008D5260008E726000829270008B1
:102690002F2700082F2700082F2700082F270008C2
:1026A0002F2700082F2700082F2700082F270008B2
:1026B0002F2700082F2700082F2700082F270008A2
:1026C0002F270008DD260008F1260008794A9342EA
:1026D00013D02CE03B68DB683B6229E03B68DB6899
:1026E00004333B6224E03B68DB6808333B621FE055
:1026F0003B68DB680C333B621AE03B689B68002B4D
:1027000002D104233B6213E03B689B68012B05D197
:1027100008233B627B68FA691A6109E008233B627F
:102720007B68FA695A6103E000233B6200E000BF66
:10273000BB69FF2B01D87B6801E07B6804337B61B8
:10274000BB69FF2B02D87B6A9B0002E07B6A083BD7
:102750009B003B617B691A680F213B6901FA03F317
:10276000DB431A40396A3B6901FA03F31A437B6978
:102770001A603B685B6803F08053002B00F0B18067
:102780004D4B9B694C4A43F0010393614A4B9B6953
:1027900003F00103BB60BB68484A7B6A9B080233B5
:1027A00052F82330FB607B6A03F003039B000F2287
:1027B00002FA03F3DB43FA681340FB607B68404A8C
:1027C000934213D07B683F4A93420DD07B683E4AC8
:1027D000934207D07B683D4A934201D1032306E030
:1027E000042304E0022302E0012300E000237A6ACC
:1027F00002F0030292009340FA681343FB602F49F2
:102800007B6A9B080233FA6841F823203B685B68C7
:1028100003F48033002B06D02D4B1A682C49BB697A
:1028200013430B6006E02A4B1A68BB69DB43284957
:1028300013400B603B685B6803F40033002B06D049
:10284000234B5A682249BB6913434B6006E0204B77
:102850005A68BB69DB431E4913404B603B685B68A9
:1028600003F48013002B06D0194B9A681849BB69F2
:1028700013438B6006E0164B9A68BB69DB4314492F
:1028800013408B603B685B6803F40013002B21D07E
:102890000F4BDA680E49BB691343CB6021E000BFE0
:1028A0000000321000003110000022100000211042
:1028B0000000121000001110001002400000014042
:1028C00000080140000C01400010014000140140CC
:1028D000000401400B4BDA68BB69DB430949134034
:1028E000CB607B6A01337B623B681A687B6A22FAA1
:1028F00003F3002B7FF48EAE00BF00BF2C37BD4624
:1029000080BC70470004014080B483B000AF7860A1
:102910000B467B8013467B707B78002B03D07A8834
:102920007B681A6103E07B881A047B681A6100BF28
:102930000C37BD4680BC704780B582B000AF0346FF
:10294000FB80084B5A69FB881340002B06D0054AD0
:10295000FB885361FB881846FEF726FB00BF08374B
:10296000BD4680BD0004014080B584B000AF7860F2
:102970007B68002B01D101232BE17B6893F83D306C
:10298000DBB2002B06D17B68002283F83C207868FC
:10299000FEF7D6FE7B68242283F83D207B681B6807
:1029A0001A687B681B6822F001021A607B681B684A
:1029B0001A687B681B6842F400421A607B681B68D7
:1029C0001A687B681B6822F400421A6000F0EAFF74
:1029D000F8607B685B68814A934207D8FB68804A4D
:1029E000934294BF01230023DBB206E0FB687D4ADB
:1029F000934294BF01230023DBB2002B01D00123BB
:102A0000E7E0FB68784AA2FB03239B0CBB607B6872
:102A10001B685B6823F03F017B681B68BA680A4348
:102A20005A607B681B681B6A23F03F017B685B6808
:102A30006A4A934202D8BB68013309E0BB684FF48D
:102A4000967202FB03F3694AA2FB03239B0901333D
:102A50007A6812680B4313627B681B68DB6923F496
:102A60004F4222F0FF027B685B685C498B4219D8B9
:102A7000FB68591E7B685B685B00B1FBF3F3591C74
:102A800040F6FC730B40002B0AD0FB68591E7B6894
:102A90005B685B00B1FBF3F30133C3F30B0351E05D
:102AA00004234FE07B689B68002B11D1FB68581E04
:102AB0007B6859680B465B000B44B0FBF3F30133B2
:102AC000C3F30B03002B0CBF01230023DBB212E086
:102AD000FB68581E7B6859680B469B000B449900A5
:102AE0000B44B0FBF3F30133C3F30B03002B0CBF18
:102AF00001230023DBB2002B01D0012322E07B68FD
:102B00009B68002B0ED1FB68581E7B6859680B46EA
:102B10005B000B44B0FBF3F30133C3F30B0343F44B
:102B200000430FE0FB68581E7B6859680B469B000A
:102B30000B4499000B44B0FBF3F30133C3F30B03D5
:102B400043F44043796809681343CB617B681B6891
:102B50001B6823F0C0017B68DA697B681B6A1A4333
:102B60007B681B680A431A607B681B689B6823F4B8
:102B7000034323F0FF037A6811697A68D26811432E
:102B80007A6812680B4393607B681B68DB6823F0EC
:102B9000FF017B685A697B689B691A437B681B68E5
:102BA0000A43DA607B681B681A687B681B6842F01E
:102BB00001021A607B6800221A647B68202283F875
:102BC0003D207B6800221A637B68002283F83E2048
:102BD000002318461037BD4680BD00BFA086010007
:102BE0007F841E00FF083D0083DE1B43D34D62102F
:102BF00080B588B002AFF8607A601A460B467B81D8
:102C000013463B81FEF792FF7861FB6893F83D30F5
:102C1000DBB2202B40F0E0807B6900931923012276
:102C20007049F86800F064F90346002B01D00223D4
:102C3000D3E0FB6893F83C30012B01D10223CCE0B8
:102C4000FB68012283F83C20FB681B681B6803F0CB
:102C50000103012B07D0FB681B681A68FB681B681F
:102C600042F001021A60FB681B681A68FB681B6867
:102C700022F400621A60FB68212283F83D20FB6881
:102C8000102283F83E20FB6800221A64FB687A68F1
:102C90005A62FB683A895A85FB685B8D9AB2FB6879
:102CA0001A85FB68504ADA6279897B693A6AF86862
:102CB00000F09CF80346002B01D001238DE0002397
:102CC0003B61FB681B685B693B61FB681B689B6938
:102CD0003B613B6966E07A69396AF86800F0DEF9C1
:102CE0000346002B0DD0FB681B6C042B07D1FB683F
:102CF0001B681A68FB681B6842F400721A600123A3
:102D00006BE0FB685B6A1A78FB681B681A61FB68FA
:102D10005B6A5A1CFB685A62FB685B8D9BB2013B85
:102D20009AB2FB685A85FB681B8D013B9AB2FB681F
:102D30001A85FB681B685B6903F00403042B1BD135
:102D4000FB681B8D002B17D0FB685B6A1A78FB6849
:102D50001B681A61FB685B6A5A1CFB685A62FB6855
:102D60005B8D9BB2013B9AB2FB685A85FB681B8D59
:102D7000013B9AB2FB681A857A69396AF86800F0F3
:102D8000CEF90346002B0DD0FB681B6C042B07D13A
:102D9000FB681B681A68FB681B6842F400721A60C3
:102DA00001231AE0FB681B8D002B94D1FB681B6884
:102DB0001A68FB681B6842F400721A60FB682022E4
:102DC00083F83D20FB68002283F83E20FB68002248
:102DD00083F83C20002300E0022318461837BD4644
:102DE00080BD00BF020010000000FFFF80B588B06A
:102DF00002AFF8607A603B600B467B81FB68DB6A60
:102E00007B617B69082B06D07B69012B03D07B6932
:102E100013F5803F08D1FB681B681A68FB681B68C4
:102E200042F480721A600BE0FB681B6B122B07D117
:102E3000FB681B681A68FB681B6842F480721A60A2
:102E40003B6800937B6800224FF00111F86800F0A6
:102E50004FF80346002B0DD0FB681B681B6803F47A
:102E60008073B3F5807F03D1FB684FF400721A645E
:102E7000032335E0FB681B69B3F5804F08D17B89DC
:102E8000DBB21A46FB681B6802F0FE021A611BE007
:102E90007B89DB11DBB203F00603DBB263F00F03C7
:102EA000DAB2FB681B681A613B687A680E49F868F9
:102EB00000F075F80346002B01D0012310E07B8958
:102EC000DAB2FB681B681A613B687A680749F868E0
:102ED00000F065F80346002B01D0012300E0002339
:102EE00018461837BD4680BD0800010002000100E9
:102EF00080B584B000AFF860B9603B601346FB71E9
:102F000025E03B68B3F1FF3F21D0FEF70FFE0246FC
:102F1000BB69D31A3A689A4202D33B68002B16D198
:102F2000FB6800221A63FB68202283F83D20FB68BF
:102F3000002283F83E20FB681B6C43F02002FB68F4
:102F40001A64FB68002283F83C20012323E0BB685D
:102F50001B0CDBB2012B0DD1FB681B685B69DA43EC
:102F6000BB6813409BB2002B0CBF01230023DBB2D4
:102F70001A460CE0FB681B689B69DA43BB68134088
:102F80009BB2002B0CBF01230023DBB21A46FB7956
:102F90009A42B6D0002318461037BD4680BD80B592
:102FA00084B000AFF860B9607A603B6051E0FB68C4
:102FB0001B685B6903F48063B3F5806F23D1FB6802
:102FC0001B681A68FB681B6842F400721A60FB6891
:102FD0001B686FF480625A61FB6800221A63FB6809
:102FE000202283F83D20FB68002283F83E20FB6806
:102FF0001B6C43F00402FB681A64FB68002283F830
:103000003C20012346E07B68B3F1FF3F21D0FEF76F
:103010008DFD02463B68D31A7A689A4202D37B68D8
:10302000002B16D1FB6800221A63FB68202283F86C
:103030003D20FB68002283F83E20FB681B6C43F0B8
:103040002002FB681A64FB68002283F83C200123FD
:1030500020E0BB681B0CDBB2012B0CD1FB681B68AA
:103060005B69DA43BB6813409BB2002B14BF01239A
:103070000023DBB20BE0FB681B689B69DA43BB688B
:1030800013409BB2002B14BF01230023DBB2002BA3
:103090008DD1002318461037BD4680BD80B584B061
:1030A00000AFF860B9607A602DE0F86800F078F859
:1030B0000346002B01D001232DE0BB68B3F1FF3F95
:1030C00021D0FEF733FD02467B68D31ABA689A42D4
:1030D00002D3BB68002B16D1FB6800221A63FB6881
:1030E000202283F83D20FB68002283F83E20FB6805
:1030F0001B6C43F02002FB681A64FB68002283F813
:103100003C20012307E0FB681B685B6903F0800338
:10311000802BCAD1002318461037BD4680BD80B52C
:1031200084B000AFF860B9607A602DE0F86800F014
:1031300037F80346002B01D001232DE0BB68B3F123
:10314000FF3F21D0FEF7F2FC02467B68D31ABA6833
:103150009A4202D3BB68002B16D1FB6800221A6387
:10316000FB68202283F83D20FB68002283F83E2084
:10317000FB681B6C43F02002FB681A64FB680022AA
:1031800083F83C20012307E0FB681B685B6903F0C0
:103190000403042BCAD1002318461037BD4680BD56
:1031A00080B483B000AF78607B681B685B6903F410
:1031B0008063B3F5806F1BD17B681B686FF48062FE
:1031C0005A617B6800221A637B68202283F83D20C5
:1031D0007B68002283F83E207B681B6C43F004026E
:1031E0007B681A647B68002283F83C20012300E09E
:1031F000002318460C37BD4680BC704780B586B0AA
:1032000000AF78607B68002B01D101236CE27B6802
:103210001B6803F00103002B00F08780924B5B6872
:1032200003F00C03042B0CD08F4B5B6803F00C03F2
:10323000082B12D18C4B5B6803F48033B3F5803FCD
:103240000BD1894B1B6803F40033002B6CD07B68D7
:103250005B68002B68D1012346E27B685B68B3F5AD
:10326000803F06D1804B1B687F4A43F48033136054
:103270002EE07B685B68002B0CD17B4B1B687A4A85
:1032800023F480331360784B1B68774A23F4802340
:1032900013601DE07B685B68B3F5A02F0CD1724B07
:1032A0001B68714A43F4802313606F4B1B686E4A9E
:1032B00043F4803313600BE06B4B1B686A4A23F4C2
:1032C00080331360684B1B68674A23F480231360C4
:1032D0007B685B68002B13D0FEF728FC386108E0A0
:1032E000FEF724FC02463B69D31A642B01D9032361
:1032F000FAE15D4B1B6803F40033002BF0D014E0BF
:10330000FEF714FC386108E0FEF710FC02463B694A
:10331000D31A642B01D90323E6E1534B1B6803F452
:103320000033002BF0D100E000BF7B681B6803F086
:103330000203002B63D04C4B5B6803F00C03002BA3
:103340000BD0494B5B6803F00C03082B1CD1464B98
:103350005B6803F48033002B16D1434B1B6803F0EA
:103360000203002B05D07B681B69012B01D00123D0
:10337000BAE13D4B1B6823F0F8027B685B69DB0018
:10338000394913430B603AE07B681B69002B20D05E
:10339000364B01221A60FEF7C9FB386108E0FEF7E0
:1033A000C5FB02463B69D31A022B01D903239BE1DB
:1033B0002D4B1B6803F00203002BF0D02A4B1B6837
:1033C00023F0F8027B685B69DB00274913430B603D
:1033D00015E0264B00221A60FEF7A8FB386108E0D2
:1033E000FEF7A4FB02463B69D31A022B01D9032343
:1033F0007AE11D4B1B6803F00203002BF0D17B68C0
:103400001B6803F00803002B3AD07B689B69002BF4
:1034100019D0174B01221A60FEF788FB386108E0CB
:10342000FEF784FB02463B69D31A022B01D9032322
:103430005AE10D4B5B6A03F00203002BF0D0012030
:1034400000F0C4FA1CE00A4B00221A60FEF76EFB83
:1034500038610FE0FEF76AFB02463B69D31A022B84
:1034600008D9032340E100BF00100240000042429F
:10347000800442429E4B5B6A03F00203002BE9D1B9
:103480007B681B6803F00403002B00F0A680002378
:10349000FB75974BDB6903F08053002B0DD1944BE8
:1034A000DB69934A43F08053D361914BDB6903F0AE
:1034B0008053BB60BB680123FB758E4B1B6803F414
:1034C0008073002B18D18B4B1B688A4A43F480739E
:1034D0001360FEF72BFB386108E0FEF727FB02467E
:1034E0003B69D31A642B01D90323FDE0814B1B6890
:1034F00003F48073002BF0D07B68DB68012B06D1CE
:103500007B4B1B6A7A4A43F0010313622DE07B6810
:10351000DB68002B0CD1764B1B6A754A23F0010344
:103520001362734B1B6A724A23F0040313621CE09C
:103530007B68DB68052B0CD16D4B1B6A6C4A43F032
:10354000040313626A4B1B6A694A43F00103136266
:103550000BE0674B1B6A664A23F001031362644B5E
:103560001B6A634A23F0040313627B68DB68002B49
:1035700015D0FEF7DBFA38610AE0FEF7D7FA02460B
:103580003B69D31A41F28832934201D90323ABE05D
:10359000574B1B6A03F00203002BEED014E0FEF73A
:1035A000C5FA38610AE0FEF7C1FA02463B69D31A50
:1035B00041F28832934201D9032395E04C4B1B6AB8
:1035C00003F00203002BEED1FB7D012B05D1484B0C
:1035D000DB69474A23F08053D3617B68DB69002BAA
:1035E00000F08180424B5B6803F00C03082B61D034
:1035F0007B68DB69022B46D13F4B00221A60FEF745
:1036000095FA386108E0FEF791FA02463B69D31A51
:10361000022B01D9032367E0354B1B6803F00073CD
:10362000002BF0D17B681B6AB3F5803F08D1304B8B
:103630005B6823F400327B689B682D4913434B6021
:103640002B4B5B6823F474127B68196A7B685B6A96
:103650000B43274913434B60274B01221A60FEF7A7
:1036600065FA386108E0FEF761FA02463B69D31A51
:10367000022B01D9032337E01D4B1B6803F00073B5
:10368000002BF0D02FE01C4B00221A60FEF74EFA00
:10369000386108E0FEF74AFA02463B69D31A022B6A
:1036A00001D9032320E0124B1B6803F00073002BA9
:1036B000F0D118E07B68DB69012B01D1012313E015
:1036C0000B4B5B68FB60FB6803F480327B681B6A12
:1036D0009A4206D1FB6803F470127B685B6A9A42D7
:1036E00001D0012300E0002318461837BD4680BDF5
:1036F00000100240007000406000424280B584B07B
:1037000000AF786039607B68002B01D10123D0E0E5
:103710006A4B1B6803F007033A689A4210D9674B5B
:103720001B6823F0070265493B6813430B60634B3A
:103730001B6803F007033A689A4201D00123B8E0FE
:103740007B681B6803F00203002B20D07B681B689A
:1037500003F00403002B05D0594B5B68584A43F42F
:10376000E06353607B681B6803F00803002B05D0FF
:10377000534B5B68524A43F460535360504B5B6851
:1037800023F0F0027B689B684D4913434B607B68D4
:103790001B6803F00103002B40D07B685B68012BA2
:1037A00007D1474B1B6803F40033002B15D10123CD
:1037B0007FE07B685B68022B07D1414B1B6803F0FD
:1037C0000073002B09D1012373E03D4B1B6803F00C
:1037D0000203002B01D101236BE0394B5B6823F01E
:1037E00003027B685B68364913434B60FEF79EF922
:1037F000F8600AE0FEF79AF90246FB68D31A41F234
:103800008832934201D9032353E02D4B5B6803F0C8
:103810000C027B685B689B009A42EBD1274B1B68CC
:1038200003F007033A689A4210D2244B1B6823F036
:10383000070222493B6813430B60204B1B6803F0CF
:1038400007033A689A4201D0012332E07B681B6883
:1038500003F00403002B08D0194B5B6823F4E062EB
:103860007B68DB68164913434B607B681B6803F079
:103870000803002B09D0124B5B6823F460527B686D
:103880001B69DB000E4913434B6000F021F8024630
:103890000B4B5B681B0903F00F030A49CB5C22FA50
:1038A00003F3094A1360094B1B681846FEF7FCF83E
:1038B000002318461037BD4680BD00BF00200240DF
:1038C00000100240B0710008000000200400002039
:1038D00090B48AB000AF2A4B3C1D0FCB84E80F0098
:1038E00040F201233B800023FB610023BB610023E6
:1038F0007B6200237B6100233B62224B5B68FB61A0
:10390000FB6903F00C03042B02D0082B03D02DE03D
:103910001D4B3B622DE0FB699B0C03F00F0307F18D
:103920002802134413F8243C7B61FB6903F48033C1
:10393000002B13D0134B5B685B0C03F0010307F102
:103940002802134413F8283CBB617B690E4A02FB32
:1039500003F2BB69B2FBF3F37B6204E07B690B4AC1
:1039600002FB03F37B627B6A3B6202E0064B3B6235
:1039700000BF3B6A18462837BD4690BC704700BF61
:10398000A07100080010024000127A0000093D00FA
:1039900080B400AF024B1B681846BD4680BC704720
:1039A0000000002080B500AFFFF7F2FF0246054B94
:1039B0005B681B0A03F007030349CB5C22FA03F39D
:1039C000184680BD00100240C071000880B485B068
:1039D00000AF78600A4B1B680A4AA2FB03235B0A0C
:1039E0007A6802FB03F3FB6000BFFB685A1EFA60B3
:1039F000002BF9D100BF00BF1437BD4680BC704713
:103A000000000020D34D621080B586B000AF786012
:103A100000233B610023FB607B681B6803F001030C
:103A2000002B7DD00023FB754F4BDB6903F08053E7
:103A3000002B0DD14C4BDB694B4A43F08053D361D3
:103A4000494BDB6903F08053BB60BB680123FB7506
:103A5000464B1B6803F48073002B18D1434B1B6843
:103A6000424A43F480731360FEF760F8386108E05F
:103A7000FEF75CF802463B69D31A642B01D9032395
:103A80006DE03A4B1B6803F48073002BF0D0364B8B
:103A90001B6A03F44073FB60FB68002B2ED07B682D
:103AA0005B6803F44073FA689A4227D02E4B1B6A76
:103AB00023F44073FB602E4B01221A602C4B002232
:103AC0001A60294AFB681362FB6803F00103002BAC
:103AD00014D0FEF72BF838610AE0FEF727F802460B
:103AE0003B69D31A41F28832934201D9032336E06D
:103AF0001D4B1B6A03F00203002BEED01A4B1B6A0E
:103B000023F440727B685B68174913430B62FB7DAB
:103B1000012B05D1144BDB69134A23F08053D36189
:103B20007B681B6803F00203002B08D00E4B5B6818
:103B300023F440427B689B680B4913434B607B68CE
:103B40001B6803F01003002B08D0074B5B6823F4BD
:103B500080027B68DB68044913434B6000231846EE
:103B60001837BD4680BD00BF001002400070004005
:103B70004004424280B582B000AF78607B68002B81
:103B800001D1012341E07B6893F83D30DBB2002B8B
:103B900006D17B68002283F83C207868FDF70EFE92
:103BA0007B68022283F83D207B681A687B680433B7
:103BB0001946104600F070FA7B68012283F846200F
:103BC0007B68012283F83E207B68012283F83F2036
:103BD0007B68012283F840207B68012283F8412022
:103BE0007B68012283F842207B68012283F843200E
:103BF0007B68012283F844207B68012283F84520FA
:103C00007B68012283F83D20002318460837BD4613
:103C100080BD000080B485B000AF78607B6893F809
:103C20003D30DBB2012B01D001233AE07B68022258
:103C300083F83D207B681B68DA687B681B6842F06C
:103C40000102DA607B681B68184A93420ED07B68D9
:103C50001B68B3F1804F09D07B681B68144A9342FC
:103C600004D07B681B68134A934211D17B681B68A0
:103C70009B6803F00703FB60FB68062B10D07B6892
:103C80001B681A687B681B6842F001021A6007E033
:103C90007B681B681A687B681B6842F001021A6027
:103CA000002318461437BD4680BC7047002C0140E5
:103CB000000400400008004080B582B000AF78608A
:103CC0007B681B681B6903F00203022B22D17B680F
:103CD0001B68DB6803F00203022B1BD17B681B68A7
:103CE0006FF002021A617B6801221A777B681B68F9
:103CF0009B6903F00303002B03D0786800F0B1F94F
:103D000005E0786800F0A4F9786800F0B3F97B6802
:103D100000221A777B681B681B6903F00403042BDD
:103D200022D17B681B68DB6803F00403042B1BD1E2
:103D30007B681B686FF004021A617B6802221A77A5
:103D40007B681B689B6903F44073002B03D0786881
:103D500000F087F905E0786800F07AF9786800F0FB
:103D600089F97B6800221A777B681B681B6903F05E
:103D70000803082B22D17B681B68DB6803F008036B
:103D8000082B1BD17B681B686FF008021A617B68E7
:103D900004221A777B681B68DB6903F00303002B9E
:103DA00003D0786800F05DF905E0786800F050F91C
:103DB000786800F05FF97B6800221A777B681B68DF
:103DC0001B6903F01003102B22D17B681B68DB6892
:103DD00003F01003102B1BD17B681B686FF01002DF
:103DE0001A617B6808221A777B681B68DB6903F419
:103DF0004073002B03D0786800F033F905E0786851
:103E000000F026F9786800F035F97B6800221A770F
:103E10007B681B681B6903F00103012B0ED17B68D3
:103E20001B68DB6803F00103012B07D17B681B686B
:103E30006FF001021A617868FCF7DAFF7B681B6893
:103E40001B6903F08003802B0ED17B681B68DB6845
:103E500003F08003802B07D17B681B686FF0800222
:103E60001A61786800F077FA7B681B681B6903F0B9
:103E70004003402B0ED17B681B68DB6803F04003D6
:103E8000402B07D17B681B686FF040021A6178688D
:103E900000F0F9F87B681B681B6903F02003202BF6
:103EA0000ED17B681B68DB6803F02003202B07D151
:103EB0007B681B686FF020021A61786800F042FA94
:103EC00000BF0837BD4680BD80B584B000AF7860C4
:103ED00039607B6893F83C30012B01D10223B3E0B9
:103EE0007B68012283F83C207B68022283F83D2016
:103EF0007B681B689B68FB60FB6823F07703FB60B3
:103F0000FB6823F47F43FB607B681B68FA689A6058
:103F10003B681B68B3F5005F3ED0B3F5005F00F26D
:103F20008780B3F5805F00F08580B3F5805F7FD830
:103F3000702B1AD0702B7BD8602B50D0602B77D889
:103F4000502B3CD0502B73D8402B58D0402B6FD8DF
:103F5000302B64D0302B6BD8202B60D0202B67D82F
:103F6000002B5CD0102B5AD062E07B6818683B684D
:103F700099683B685A683B68DB6800F066F97B68C3
:103F80001B689B68FB60FB6843F07703FB607B6802
:103F90001B68FA689A604EE07B6818683B6899680D
:103FA0003B685A683B68DB6800F04FF97B681B6828
:103FB0009A687B681B6842F480429A603BE07B68A9
:103FC00018683B6859683B68DB681A4600F0C6F819
:103FD0007B681B685021184600F01DF92BE07B68B8
:103FE00018683B6859683B68DB681A4600F0E4F8DB
:103FF0007B681B686021184600F00DF91BE07B68A8
:1040000018683B6859683B68DB681A4600F0A6F8F8
:104010007B681B684021184600F0FDF80BE07B68C8
:104020001A683B681B681946104600F0F4F802E075
:1040300000BF00E000BF7B68012283F83D207B6861
:10404000002283F83C20002318461037BD4680BD6F
:1040500080B483B000AF786000BF0C37BD4680BC31
:10406000704780B483B000AF786000BF0C37BD46A6
:1040700080BC704780B483B000AF786000BF0C375D
:10408000BD4680BC704780B483B000AF786000BF8D
:104090000C37BD4680BC704780B485B000AF7860F7
:1040A00039607B681B68FB607B68294A93420BD0B0
:1040B0007B68B3F1804F07D07B68264A934203D0D8
:1040C0007B68254A934208D1FB6823F07003FB60AC
:1040D0003B685B68FA681343FB607B681C4A934249
:1040E0000BD07B68B3F1804F07D07B68194A9342AD
:1040F00003D07B68184A934208D1FB6823F44073CD
:10410000FB603B68DB68FA681343FB60FB6823F0E5
:1041100080023B685B691343FB607B68FA681A6046
:104120003B689A687B68DA623B681A687B689A62C7
:104130007B68074A934203D13B681A697B681A631C
:104140007B6801225A6100BF1437BD4680BC7047AE
:10415000002C0140000400400008004080B487B0FB
:1041600000AFF860B9607A60FB681B6A7B61FB682E
:104170001B6A23F00102FB681A62FB689B693B61C2
:104180003B6923F0F0033B617B681B013A691343F1
:104190003B617B6923F00A037B617A69BB68134347
:1041A0007B61FB683A699A61FB687A691A6200BFB1
:1041B0001C37BD4680BC704780B487B000AFF86044
:1041C000B9607A60FB681B6A23F01002FB681A6210
:1041D000FB689B697B61FB681B6A3B617B6923F41D
:1041E00070437B617B681B037A6913437B613B6986
:1041F00023F0A0033B61BB681B013A6913433B6199
:10420000FB687A699A61FB683A691A6200BF1C37D9
:10421000BD4680BC704780B485B000AF786039601F
:104220007B689B68FB60FB6823F07003FB603A6867
:10423000FB68134343F00703FB607B68FA689A60EE
:1042400000BF1437BD4680BC704780B487B000AF54
:10425000F860B9607A603B60FB689B687B617B6952
:1042600023F47F437B613B681A027B681A43BB6877
:1042700013437A6913437B61FB687A699A6000BFD4
:104280001C37BD4680BC704780B485B000AF7860F5
:1042900039607B6893F83C30012B01D1022346E062
:1042A0007B68012283F83C207B68022283F83D2052
:1042B0007B681B685B68FB607B681B689B68BB60F6
:1042C000FB6823F07003FB603B681B68FA681343CC
:1042D000FB607B681B68FA685A607B681B68164A3B
:1042E00093420ED07B681B68B3F1804F09D07B6886
:1042F0001B68124A934204D07B681B68104A9342A1
:104300000CD1BB6823F08003BB603B685B68BA6874
:104310001343BB607B681B68BA689A607B680122A4
:1043200083F83D207B68002283F83C200023184658
:104330001437BD4680BC7047002C0140000400408B
:104340000008004080B483B000AF786000BF0C3735
:10435000BD4680BC704780B483B000AF786000BFBA
:104360000C37BD4680BC7047014B1868704700BFD2
:104370000C00002070B500260C4D0D4C641BA410E1
:10438000A64209D102F0BAFE00260A4D0A4C641B6F
:10439000A410A64205D170BD55F8043B98470136DC
:1043A000EEE755F8043B98470136F2E7AC75000894
:1043B000AC750008AC750008B075000803460244EF
:1043C000934200D1704703F8011BF9E7002B2DE958
:1043D000F0471F46BBBF03F100431F4600232D23B8
:1043E00088B01446129A109D1370149BDDF84CA0EF
:1043F00023F02008B8F1460F05D0B8F1450F00D1E1
:104400000135022300E0032307AA049206AACDE99E
:1044100002A2CDE9003522463B4600F0E5FCB8F1AA
:10442000470F064602D1119BDB0722D5B8F1460F94
:1044300006EB050910D13378302B0AD10022002376
:1044400020463946FCF7B0FA18B9C5F10105CAF89B
:104450000050DAF800309944002200232046394603
:10446000FCF7A2FA08B1CDF81C903022079B4B450F
:1044700007D33046079B159A9B1B136008B0BDE815
:10448000F087591C07911A70F0E70346F7B5002929
:1044900003F8022BB6BF2D222B2249420929427074
:1044A0002BDD0DF10704A4460A2791FBF7F60A4617
:1044B000A64607FB1615632A05F13005314604F1BF
:1044C000FF340EF8015CF0DC3031AEF1020504F887
:1044D000011C2946441C61450AD30DF10902A2EBD7
:1044E0000E02654588BF00221344181A03B0F0BDC0
:1044F00011F8012B04F8012FEDE7302330318370E0
:10450000C170031DF1E700002DE9F04F91B00C469A
:10451000DDF8688016461F46054601F053FA036829
:1045200018460993FBF714FE00230E93D8F80030C9
:104530000A90073323F0070303F1080294F8189058
:10454000D4F800B0C8F80020D3E90023C4E912234E
:10455000D4E9128A2AF000430B934FF0FF32404611
:104560009C4B0B99FCF752FA70BB4FF0FF32404660
:10457000984B0B99FCF72CFA30BB002200234046E5
:104580005146FCF71BFA10B12D2384F84330924BAF
:104590009248B9F1470F94BF9846804603234FF0E5
:1045A000000A23612BF0040323603346214628468A
:1045B00000970FAA00F0D4F9013040F090804FF03E
:1045C000FF3011B0BDE8F08F424653464046514699
:1045D000FCF71CFA48B1BAF1000FB8BF2D23804890
:1045E000B8BF84F843307F4BD3E7636809F0DF013D
:1045F0005A1C42D106236360002206920EAACDE91E
:1046000004920DAA4BF4806303920DF13302CDE9BD
:1046100001322360636842460093284653460B915B
:10462000FFF7D4FE0B99804647290D9908D1C81C85
:1046300002DB6368994240DDA9F102095FFA89F95A
:10464000B9F1650F1FD84A46013904F150000D91A8
:10465000FFF71BFF0E9A82461318012A236102DC22
:104660002268D20701D5013323619DF83330002B36
:104670009BD02D2384F8433097E74729BCD1002BEA
:10468000BAD10123B7E7B9F1660F18D100296368E1
:104690000BDD216113B92268D00702D501330B4429
:1046A00023614FF0000AA165DFE713B92268D20742
:1046B00001D50233F4E70123F2E74FF067090E9BBF
:1046C000994205DB23682161D807EAD54B1CE7E74F
:1046D0000029CCBF0122C1F102021344E0E72368A4
:1046E0005A0507D42369424631462846B847013067
:1046F0002BD164E7B9F1650F40F2DD80D4E91201F6
:1047000000220023FCF750F9002833D00123314662
:104710002846354AB84701303FF451AFDDE90D2353
:104720009A4202DB2368D8070FD5DDE90923314619
:104730002846B84701303FF442AF4FF0000804F17B
:104740001A090E9B013B434509DC23689B0700F1D6
:104750000281E0680F9B9842B8BF184631E70123F9
:104760004A4631462846B84701303FF428AF08F1A1
:104770000108E6E70D9B002B38DC01233146284673
:10478000194AB84701303FF41AAFDDE90D2313434E
:1047900002D12368D907D8D5DDE909233146284657
:1047A000B84701303FF40BAF4FF0000904F11A0A8B
:1047B0000D9B5B424B4501DC0E9B94E70123524667
:1047C00031462846B84701303FF4F9AE09F10109F6
:1047D000EEE700BFFFFFEF7FCC710008D07100084B
:1047E000D8710008D4710008DC7100080E9AA36D1E
:1047F0009A42A8BF1A46002A914637DC4FF0000BB8
:1048000029EAE97904F11A02D4F858A0AAEB0903BD
:104810005B4533DCDDE90D239A423BDB2368DA0795
:1048200038D40E9A0D99A2EB0A03A2EB010999451F
:10483000A8BF9946B9F1000F34DC4FF0000829EA0F
:10484000E97904F11A0ADDE90D239B1AA3EB0903A8
:1048500043457FF77AAF0123524631462846B84791
:1048600001303FF4ACAE08F10108ECE713463146E5
:1048700042462846B8470130C0D1A0E60123314660
:1048800028460B92B84701303FF499AE0B9A0BF1D2
:10489000010BB9E73146DDE909232846B847013065
:1048A000BFD18CE64B463146284608EB0A02B84792
:1048B0000130C2D183E60E9A012A01DCDB0737D52D
:1048C0000123424631462846B84701303FF477AECF
:1048D000DDE9092331462846B84701303FF46FAE81
:1048E000D4E9120100220023FCF75EF8D8B90E9B30
:1048F00008F10102013B31462846B84701300ED18C
:104900005DE601234A4631462846B84701303FF468
:1049100056AE08F101080E9B013B4345F1DC5346BE
:1049200004F15002E0E64FF0000804F11A09F2E742
:1049300001234246DFE701234A4631462846B8476D
:1049400001303FF43CAE08F10108E3680F995B1AAF
:104950004345F0DCFDE64FF0000804F11909F4E7E7
:104960002DE9F047164699468A680B690746934237
:10497000B8BF1346336091F843200C46DDF8208021
:104980000AB1013333602368990642BF33680233AA
:104990003360256815F0060506D104F1190AE368AD
:1049A00032689B1AAB4228DC94F84320131E22681D
:1049B00018BF012392062DD44946384604F143021C
:1049C000C047013020D02368E56803F00603042BBC
:1049D00018BF002532684FF00006A36808BFAD1A63
:1049E000226908BF25EAE5759342C4BF9B1AED18FA
:1049F0001A34B5421AD1002008E001235246494634
:104A00003846C047013003D14FF0FF30BDE8F08792
:104A10000135C4E73020E11881F843005A1C94F8AE
:104A200045102244023382F84310C5E70123224691
:104A300049463846C0470130E6D00136D9E7000084
:104A40002DE9FF470C46277E9146782F80469A46EF
:104A50000C9904F1430207D8622F0AD8002F00F006
:104A6000D980582F00F0A48004F1420684F84270E7
:104A70003AE0A7F16303152BF6D801A050F823F014
:104A8000D94A0008ED4A0008694A0008694A000846
:104A9000694A0008694A0008ED4A0008694A0008A6
:104AA000694A0008694A0008694A0008FB4B000887
:104AB0001D4B0008DD4B0008694A0008694A0008E0
:104AC0001D4C0008694A00081D4B0008694A00088F
:104AD000694A0008E54B00080B6804F142061A1DFC
:104AE0001B680A6084F842300123A4E02568086846
:104AF0002E0600F104030AD505680B60002D03DAC9
:104B00002D236D4284F843300A235E4819E015F0E6
:104B1000400F05680B6018BF2DB2EFE70B682568E2
:104B2000181D0860280601D51D6802E06906FBD53E
:104B30001D886F2F0CBF08230A235248002184F8D8
:104B400043106668002EA8BF2168A660A4BF21F0AC
:104B5000040121600DB9002E4DD01646B5FBF3F1CE
:104B600003FB1157C75D06F8017D2F46BB420D467A
:104B7000F4D9082B0BD12368DF0708D523696168B6
:104B80009942DEBF302306F8013C06F1FF36921B46
:104B900022614B4621464046CDF800A003AAFFF70C
:104BA000DFFE01304CD14FF0FF3004B0BDE8F0879C
:104BB000344884F845700E68236856F8045B1F0675
:104BC0000E6014D5D90744BF43F0200323601DB9FC
:104BD000236823F0200323601023AFE7236843F00A
:104BE000200323607823284884F84530E3E75E06F5
:104BF00048BFADB2E6E71646BBE70B6826681D1D49
:104C000060690D6035061B6801D5186002E0710609
:104C1000FBD51880002316462361BAE70B681A1DDE
:104C20000A601E6800213046626800F0D7FE08B1B5
:104C3000801B606063682361002384F84330A8E729
:104C40003246494640462369D0470130ABD02368FD
:104C50009B0713D4E068039B9842B8BF1846A4E7AB
:104C60000123324649464046D04701309BD00135AA
:104C7000E36803995B1AAB42F2DCEBE7002504F131
:104C80001906F5E7DE710008EF7100080EB46FF049
:104C9000004100B59CB01DAB0290069007910491B5
:104CA0000848094953F8042B0591006802A90193AB
:104CB00001F042FB0022029B1A701CB05DF804EB6D
:104CC00003B070470C0000200802FFFF2DE9F74FEA
:104CD00003690C690746A342C0F28380013C00F1DE
:104CE000140501F1140805EB8403019358F82430EE
:104CF00055F8242001339A42B2FBF3F64FEA840BB5
:104D000008EB840932D34FF0000E4046AC46F24621
:104D100050F8042B93B206FB03E3120C4FEA134E38
:104D200006FB02E29BB2AAEB0303DCF800A04FEA09
:104D3000124E1FFA8AFA53441FFA82FADCF8002056
:104D40008145CAEB124202EB23429BB243EA024383
:104D50004FEA224A4CF8043BDAD255F80B302BB913
:104D6000019B043B9D421A462FD33C61384601F01B
:104D7000CBF8002825DB28464FF0000C013658F808
:104D8000041BD0F800E08BB2ACEB03031FFA8EF2E9
:104D900013440A0CC2EB1E4202EB23429BB243EACD
:104DA0000243C1454FEA224C40F8043BE7D255F894
:104DB000242005EB840322B9043B9D421A460AD302
:104DC0003C61304603B0BDE8F08F1268043B002A16
:104DD000CBD1013CC6E71268043B002AF0D1013C6C
:104DE000EBE70020EEE700002DE9F04F16461F46E6
:104DF000446A99B00546CDE90467DDF8948074B93A
:104E0000102000F0E3FD0246686220B9EA21AE4BB3
:104E1000AE4801F0A1FBC0E901440460C4606B6AC4
:104E2000196851B15A68012393404A608B60284643
:104E300000F030FE00226B6A1A603B1EAFBF0023F9
:104E4000012223F000430593A8BFC8F80030DDF825
:104E500014909F4BB8BFC8F8002033EA090319D15A
:104E600042F20F73249A1360C9F31303334300F023
:104E70008085269B53B9974B22E0974B08930833C4
:104E8000269A1360089819B0BDE8F08F914B0893EB
:104E90000333F5E7DDE90434CDE90C34DDE90C0139
:104EA00000220023FBF780FD804658B10123249A9D
:104EB0001360269B002B00F0598588481860431E1C
:104EC0000893DFE716AB019317AB00932846DDE9A3
:104ED0000C2301F0C5F8C9F30A548246002C7ED099
:104EE000DDE90C010D9BA4F2FF34C3F3130343F07F
:104EF0007F5141F44011CDF84C800022784BFBF7F4
:104F000033F96BA3D3E90023FBF7E6FA6AA3D3E9ED
:104F10000023FBF72BF9064620460F46FBF772FAF3
:104F200067A3D3E90023FBF7D7FA02460B463046C6
:104F30003946FBF71BF906460F46FBF77DFD0022BD
:104F40008146002330463946FBF738FD48B14846D4
:104F5000FBF758FA32463B46FBF726FD08B909F144
:104F6000FF39B9F1160F57D8DDE90C015D4B03EBA2
:104F7000C903D3E90023FBF721FD00284ED000230D
:104F800009F1FF390F93169B1C1B631E099349BF40
:104F9000C4F1010300230693002354BF0693099331
:104FA000B9F1000F3CDB099BCDF838904B440993D5
:104FB00000230A93229B092B6CD8052BC4BF043B0A
:104FC0002293229BC8BF0024A3F10203D8BF01246F
:104FD000032B00F28B80DFE803F02D4F4D5BDDE902
:104FE00016431C4404F23243202BC3BFC3F14003D9
:104FF00004F2124009FA03F3C3F12003C6BF26FAF4
:1050000000F0184306FA03F0FBF7ECF90123A1F1D5
:10501000F871013C139370E70123B3E70F90B2E7F7
:10502000069BA3EB09030693C9F100030A9300232F
:105030000E93BFE700230B93239B002B59DC4FF00B
:10504000010B5B46CDF808B0CDF88CB00022686A41
:105050004260042202F114069E4241684FD928465C
:1050600000F0D8FC089000284DD102464FF4D571CD
:105070001D4BCDE60123DEE700230B93239B09EBB9
:10508000030B0BF10103012B0293B8BF0123DDE7F2
:105090000123F2E7012400230B9422934FF0FF3BFE
:1050A00000221223CDF808B02392CFE7AFF300809F
:1050B00061436F63A787D23FB3C8608B288AC63F1E
:1050C000FB799F501344D33F0D72000824720008EF
:1050D0000000F07F0972000800720008DD7100080E
:1050E0000000F83F207300088372000801230B932F
:1050F000D4E7DDF88CB05B46CDF808B0A6E7013107
:1051000041605200A6E76B6A089A1A60029B0E2B58
:1051100000F2A880002C00F0A580B9F1000F34DD6A
:105120009A4A09F00F0302EBC30319F4807FD3E915
:105130000034CDE910344FEA291416D0DDE90C0112
:10514000934B0327D3E90823FBF7F0FACDE90401D9
:1051500004F00F048E4E54B9DDE91023DDE904019B
:10516000FBF7E4FACDE9040129E00227F2E7E107C1
:1051700008D5DDE91001D6E90023FBF7ADF9CDE94B
:105180001001013764100836E5E700F0A580DDE97D
:105190000C01C9F100047D4B04F00F0203EBC203C4
:1051A000D3E90023FBF798F902270023CDE9040196
:1051B000774E2411002C40F08480002BD2D10F9B1D
:1051C000002B00F08B80DDE90434CDE91034DDE9FB
:1051D000100100226F4BFBF7F1FB00287ED0029BF1
:1051E000002B7BD0BBF1000F38DDDDE91001002280
:1051F000694BFBF771F95C46CDE9040109F1FF3811
:1052000001373846FBF7FEF8DDE90423FBF764F9C4
:105210000022624BFAF7AAFFA1F15076CDE9100106
:105220001196002C5DD1DDE9040100225C4BFAF7F8
:105230009BFF02460B46CDE904233346109AFBF749
:10524000DBFB002840F09E82DDE90401109A06F1A4
:105250000043FBF7B3FB002840F09282DDE90C34F9
:10526000CDE90434179B002BC0F25381B9F10E0F26
:1052700000F34F81454B03EBC903D3E90034CDE97B
:105280000634239B002B80F2DB80029B002B00F373
:10529000D78040F07482DDE906010022404BFBF725
:1052A0001BF9DDE90423FBF79DFB029C2646002841
:1052B00040F04A823123089F09F1010907F8013BB8
:1052C00046E2E20705D5D6E90023FBF705F90123FD
:1052D0000137641008366DE7022770E7C846029C64
:1052E0008FE70899294B214412910B9903EBC403D2
:1052F000DDE9106753E90223002955D00020294930
:10530000FBF714FA3B463246FAF72EFFCDE91001BF
:10531000089FDDE90401FBF78FFB0446FBF772F8F9
:1053200002460B46DDE90401FAF71EFF02460B4672
:105330003034CDE90423DDE9102307F8014BFBF7F6
:105340003DFB002874D1DDE9042300201149FAF760
:105350000BFFDDE91023FBF731FB002840F0B6809E
:10536000129B9F423FF47AAFDDE9100100220A4B05
:10537000FBF7B2F80022CDE91001DDE90401064B8C
:10538000FBF7AAF8CDE90401C3E700BF20730008CA
:10539000F87200080000F03F0000244000001C40AC
:1053A000000014400000E03F30463946FBF794F817
:1053B000129BCDE91001089C1493DDE90401FBF771
:1053C0003BFB1590FBF71EF802460B46DDE9040196
:1053D000FAF7CAFE159B0646303304F8013B129BD0
:1053E0000F469C424FF0000224D1DDE91001B34B7F
:1053F000FAF7BCFE02460B4630463946FBF7FCFA8C
:10540000002862D1DDE910230020AC49FAF7ACFE98
:1054100002460B4630463946FBF7D0FA00283FF4E7
:105420001DAF149F7B1E149317F8013C302BF8D04E
:10543000C1463AE0A24BFBF74FF8CDE90401BCE7C7
:10544000089FDDE90623DDE90401FBF76FF9FBF7AF
:10545000F3FA0446FAF7D6FFDDE90623FBF73CF83A
:1054600004F130060B460246DDE90401FAF77CFE42
:1054700007F8016B089E029BBE1BB3423AD102465D
:105480000B46FAF773FE02460B46CDE90223DDE92F
:105490000623FBF7B1FA58BBDDE90623DDE902017B
:1054A000FBF782FA08B1E10722D42846514600F002
:1054B000F1FA00233B70249B09F101001860269B40
:1054C000002B3FF4DFAC1F60DCE427463B461F4661
:1054D00013F8012D392A07D1089A9A42F7D13022C0
:1054E000089908F101080A701A7801321A709FE7CA
:1054F000C846EBE70022724BFAF7EEFF02460B4676
:10550000CDE9042300220023FBF74EFA002898D0AF
:10551000CBE70B9A002A00F0CD80229A012A00F3F3
:10552000AF80139A002A00F0A78003F233430A9C4D
:10553000069F069A01211A440692099A28461A449F
:10554000099200F061FB0646002F0CDD099B002B41
:1055500009DDBB42A8BF3B46069AFF1AD21A069243
:10556000099AD31A09930A9BF3B10B9B002B00F005
:10557000A980002C10DD31462246284600F0FEFBB3
:10558000524601460646284600F054FB80465146E6
:10559000284600F07FFAC2460A9B1A1B04D05146E7
:1055A000284600F0EBFB82460121284600F02CFB48
:1055B0000E9B0446002B40F387801A46014628467E
:1055C00000F0DCFB229B0446012B40F380804FF06F
:1055D0000008236904EB8303186900F0C7FAC0F1DF
:1055E0002000099B184410F01F0000F09280C0F1C9
:1055F0002003042B40F38A80C0F11C00069B074463
:1056000003440693099B03440993069B002B05DD85
:1056100051461A46284600F00BFC8246099B002B97
:1056200005DD21461A46284600F002FC04460F9B81
:10563000002B70D02146504600F066FC00286ADA44
:10564000002351460A22284600F046FA0B9B824668
:1056500009F1FF39002B00F09381314600230A2223
:10566000284600F039FABBF1000F064600F393809C
:10567000229B022B57DC8EE0169BC3F1360356E7C4
:10568000029B5C1E0A9BA342B7BF0A9B1C1BE21A2B
:105690000E9BBEBF0A949B180E93029BB8BF0024BA
:1056A000002BBBBF069B029A069F9F1AACBF029BB2
:1056B00000233EE70A9C069F0B9E45E70000E03F63
:1056C000000024400A9A6AE7229B012B19DC049B04
:1056D000BBB9059BC3F313039BB9059B23F00043A0
:1056E0001B0D1B0583B14FF00108069B0133069388
:1056F000099B013309930E9B002B7FF46AAF0120B5
:105700006FE74FF00008F6E79846F4E73FF47DAF07
:1057100018461C3072E7029B002B36DC229B022BC2
:1057200033DDDDF808B0BBF1000F0DD121465B463B
:105730000522284600F0D0F901460446504600F004
:10574000E3FB00283FF7B6AD239B089F6FEA0309F0
:105750004FF000082146284600F09CF9002E3FF447
:10576000A4AEB8F1000F05D0B04503D0414628469D
:1057700000F090F93146284600F08CF995E60024B7
:105780002646E1E7C146264694E50B9BDDF808B0C6
:10579000002B00F0FC80002F05DD31463A462846FC
:1057A00000F046FB0646B8F1000F5CD02846716851
:1057B00000F030F9074628B9024640F2EA217E4B54
:1057C000FFF726BB326906F10C01023292000C3061
:1057D00000F012F901223946284600F029FBB046B4
:1057E0000646089B01330293089B5B440A93049B83
:1057F00003F001030993029B2146504603F1FF3B4E
:10580000FFF764FA034641463033049050460B9349
:1058100000F07AFB324606902146284600F090FBC5
:10582000C26807460B9B02BB0146504600F06CFB6A
:1058300002460B9B39462846CDE90B3200F02AF987
:10584000229B0C9A029F43EA0201099B0B430B9B8C
:105850000DD1392B27D0069A002A01DD049B313364
:105860008BF8003076E73046B9E70122E2E7069987
:10587000002904DB229801430998014320D1002A22
:10588000EEDD514601222846029300F0D1FA21466E
:10589000824600F039FB0028029B02DCE0D1DA07E7
:1058A000DED5392BDAD139238BF800303B461F4641
:1058B00017F8012C013B392A50D001321A7049E700
:1058C000002A03DD392BEED00133C9E7029A0A9989
:1058D00002F8013C8A422AD0514600230A22284677
:1058E00000F0FAF8B04582464FF000034FF00A028C
:1058F0004146284607D100F0EFF880460646029B55
:105900000133029377E700F0E7F831468046002341
:105910000A22284600F0E0F80646F0E7BBF1000F47
:10592000CCBF5F4601274FF00008089A1744514644
:1059300001222846029300F07BFA2146824600F0BD
:10594000E3FA0028B2DC02D1029BDB07AED43B466F
:105950001F4613F8012D302AFAD0FBE6089A9A4226
:10596000A5D1312309F101091370F3E6134BFFF7B9
:10597000A7BA269B002B7FF480AA114BFFF7A0BA91
:10598000BBF1000F03DC229B022B3FF7CCAE089F3C
:1059900021465046FFF79AF9089A00F1300307F8BC
:1059A000013BBA1A9345B9DD514600230A22284625
:1059B00000F092F88246EBE783720008DC71000881
:1059C000007200080048704760010020024B014649
:1059D000186800F0FBBB00BF0C000020034610B5A8
:1059E000C9B202449342184601D1002003E0047872
:1059F00001338C42F6D110BD0A44914200F1FF33CD
:105A000000D1704710B511F8014B914203F8014FD6
:105A1000F9D110BD70B5466A04460D4676B910201E
:105A2000FFF7D4FF0246606220B96621174B184881
:105A300000F092FDC0E901660660C660666AF36820
:105A400083B1636ADB6853F82500B8B9012101FA14
:105A500005F6721D2046920000F05EFB60B1C0E9C1
:105A600001560EE021220421204600F055FB636A16
:105A7000F060DB68002BE4D1002070BD026843F8C1
:105A800025200023C0E90333F7E700BF0D720008AB
:105A90009472000870B5466A05460C4676B9102027
:105AA000FFF794FF0246686220B98A21084B094833
:105AB00000F052FDC0E901660660C6603CB16B6A49
:105AC0006268DB6853F82210216043F8224070BD01
:105AD0000D720008947200082DE9F04198460C46BA
