:020000040800F2
:1000000000000220390F0008C10E0008C70E0008CA
:10001000CD0E0008D30E0008D90E00080000000025
:10002000000000000000000000000000DF0E0008DB
:10003000ED0E000800000000FB0E0008090F00088C
:10004000890F0008890F0008890F0008890F000830
:10005000890F0008890F0008890F0008890F000820
:10006000890F0008890F0008890F0008890F000810
:10007000890F0008890F0008890F0008890F000800
:10008000890F0008890F0008890F00080000000090
:10009000000000000000000000000000890F0008C0
:1000A000890F0008890F0008890F00088D050008D6
:1000B000890F0008890F0008890F0008890F0008C0
:1000C000890F0008890F0008890F0008890F0008B0
:1000D000890F0008890F0008890F00080000000040
:1000E000890F0008890F0008890F00080000000030
:1000F000000000000000000000000000890F000860
:1001000000000000890F0008890F0008890F00080F
:1001100000000000000000000000000000000000DF
:10012000890F0008890F0008890F0008890F00084F
:10013000890F00080000000000000000000000001F
:10014000000000000000000000000000890F00080F
:10015000890F0008890F0008890F0008890F00081F
:10016000890F0008890F000800000000000000004F
:10017000000000000000000000000000000000007F
:1001800000000000890F00080000000000000000CF
:08019000890F0008890F000827
:1001980010B5054C237833B9044B13B10448AFF3B9
:1001A80000800123237010BD0C0000200000000017
:1001B800C43C000808B5034B1BB103490348AFF31F
:1001C800008008BD0000000010000020C43C0008AA
:1001D80053B94AB9002908BF00281CBF4FF0FF31A6
:1001E8004FF0FF3000F06EB9ADF1080C6DE904CEA8
:1001F80000F006F8DDF804E0DDE9022304B07047FA
:100208002DE9F047089D04468C46002B40F083807A
:100218008A42174647D9B2FA82F242B1C2F12000A7
:1002280024FA00F09140974040EA010C94404FEACC
:100238001748230CBCFBF8F61FFA87FE08FB16C10B
:1002480043EA014306FB0EF1994209D9FB1806F16E
:10025800FF3080F01981994240F21681023E3B44FA
:100268005B1AA4B2B3FBF8F008FB103344EA03446A
:1002780000FB0EFEA64509D93C1900F1FF3380F0BA
:100288000581A64540F2028102383C4440EA064016
:10029800A4EB0E0400261DB1D4400023C5E9004399
:1002A8003146BDE8F08702B9FFDEB2FA82F2002AD1
:1002B80050D1CB1B4FEA174E1FFA87F80126B3FB24
:1002C800FEFC210C0EFB1C3341EA034108FB0CF336
:1002D8008B4207D979180CF1FF3002D28B4200F219
:1002E800E9808446C91AA3B2B1FBFEF00EFB1011D7
:1002F80043EA014408FB00F8A04507D93C1900F17E
:10030800FF3302D2A04500F2D9801846A4EB0804B6
:1003180040EA0C40BFE78B4209D9002D00F0B180BC
:100328000026C5E9000130463146BDE8F087B3FA3A
:1003380083F6002E4AD18B4202D3824200F2B88063
:10034800841A61EB030101208C46002DA8D0C5E971
:10035800004CA5E7C2F1200320FA03F6974001FA02
:1003680002F04FEA174ED9403043030CB1FBFEF6BA
:100378001FFA87F80EFB161143EA014306FB08F142
:10038800994204FA02F409D9FB1806F1FF3C80F0FF
:100398008D80994240F28A80023E3B445B1A81B2CA
:1003A800B3FBFEF00EFB103341EA034100FB08F3F8
:1003B8008B4207D9791800F1FF3C73D28B4271D96F
:1003C80002383944CB1A40EA064678E7C6F1200CD1
:1003D80003FA06F422FA0CF31C4320FA0CF701FA8C
:1003E80006F34FEA144E21FA0CF11F433B0CB1FB04
:1003F800FEF91FFA84F80EFB191143EA014109FBC3
:1004080008FA8A4502FA06F200FA06F308D96118D2
:1004180009F1FF3048D28A4546D9A9F10209214499
:10042800A1EB0A01BFB2B1FBFEF00EFB101147EAC7
:10043800014700FB08F8B84507D9E71900F1FF3173
:100448002ED2B8452CD90238274440EA0940A7EBF8
:100458000807A0FB02894F45C64649461AD317D05C
:100468005DB1B3EB0E0267EB010707FA0CFCF24033
:100478004CEA0202F740C5E9002700263146BDE8EC
:10048800F0872E4628460BE70646E9E61846FDE6BD
:100498004345E5D2B8EB020E69EB04010138DFE70A
:1004A8000846D2E760468DE78146B9E7664675E7B4
:1004B80030464AE7ACF1020C394413E702383C44B1
:1004C80024E700BF704700BF80B586B002AF03467F
:1004D800FB71FB7923F00F03FB73FB791B01BB73E3
:1004E800FB7B43F00C03DBB23B72FB7B43F008035E
:1004F800DBB27B72BB7B43F00C03DBB2BB72BB7B12
:1005080043F00803DBB2FB7207F10802642300938F
:1005180004234E21034801F0A5F900BF1037BD465A
:1005280080BD00BF7800002080B500AF3320FFF702
:10053800CBFF3220FFF7C8FF322000F095FD2820BE
:10054800FFF7C2FF322000F08FFD0120FFF7BCFF4C
:10055800322000F089FD0620FFF7B6FF322000F0B8
:1005680083FD0C20FFF7B0FF322000F07DFD022054
:10057800FFF7AAFF322000F077FD8020FFF7A4FFE5
:1005880000BF80BD80B500AF0F4802F09FFB0E4B47
:100598001B685B6B9AB20D4B1A800C4B1A880C4B7C
:1005A8001B88D31A9AB20B4B1A80084B1A88084B2F
:1005B8001A80084B1B881A46074B93FBF2F39AB232
:1005C800064B1A8000BF80BD1401002028000020BF
:1005D8002A0000202E00002040420F002C0000209E
:1005E80080B500AF00F0CEFC00F028F800F086FAE5
:1005F80000F0AEF800F020F900F094F900F008FAE5
:1006080000F078F8FFF790FF0021084802F03AF967
:100618000021074802F036F90021064802F032F9B5
:100628000021054802F038FAFEE700BF5C0100200F
:10063800CC000020300000201401002080B594B0C8
:1006480000AF07F1200330220021184603F02EFBEB
:1006580007F10C0300221A605A609A60DA601A6186
:100668000023BB60214B1B6C204A43F0805313646A
:100678001E4B1B6C03F08053BB60BB6800237B6080
:100688001B4B1B681A4A43F440431360184B1B6802
:1006980003F440437B607B6801233B624FF4803363
:1006A8007B620023BB6307F12003184601F0E2FBDD
:1006B8000346002B01D000F073FA0F23FB600123DF
:1006C8003B6100237B610023BB610023FB6107F1D1
:1006D8000C030021184601F045FE0346002B01D00B
:1006E80000F05EFA00BF5037BD4680BD00380240BA
:1006F8000070004080B500AF124B134A1A60114BCE
:10070800124A5A600F4B00229A600E4B0022DA60A0
:100718000C4B4FF480421A610A4B00225A61094B74
:1007280000229A61074B0022DA61064B00221A6206
:10073800044800F053FF0346002B01D000F030FAC4
:1007480000BF80BD7800002000540040A086010052
:1007580080B58AB000AF07F1180300221A605A600A
:100768009A60DA6007F1100300221A605A603B466B
:1007780000221A605A609A60DA602D4B2D4A1A607E
:100788002B4B07225A602A4B00229A60284B4FF6BF
:10079800FF72DA60264B00221A61254B00225A614B
:1007A800234B00229A61224801F0C4FF0346002B24
:1007B80001D000F0F5F94FF48053BB6107F118033D
:1007C80019461B4802F0E8FC0346002B01D000F054
:1007D800E7F9174802F006F90346002B01D000F0AC
:1007E800DFF900233B6100237B6107F11003194601
:1007F8000F4803F0B5F90346002B01D000F0D0F9FB
:1008080002233B6001237B600023BB600023FB6065
:100818003B4600221946064802F060FB0346002BBF
:1008280001D000F0BDF900BF2837BD4680BD00BF2C
:10083800140100200000014080B58EB000AF07F120
:10084800280300221A605A609A60DA6007F12003D0
:1008580000221A605A603B1D00221A605A609A6092
:10086800DA601A615A619A612D4B4FF080421A6022
:100878002B4B07225A602A4B00229A60284B40F2E1
:10088800E732DA60264B00221A61254B80229A61F2
:10089800234801F04FFF0346002B01D000F080F9F8
:1008A8004FF48053BB6207F1280319461C4802F035
:1008B80073FC0346002B01D000F072F9184801F0D0
:1008C80088FF0346002B01D000F06AF900233B6241
:1008D80000237B6207F120031946114803F040F911
:1008E8000346002B01D000F05BF960237B604FF4D6
:1008F800FA73BB600023FB6000237B613B1D002271
:100908001946074802F086FB0346002B01D000F089
:1009180047F9034800F04AFA00BF3837BD4680BDA2
:100928005C01002080B58EB000AF07F128030022DB
:100938001A605A609A60DA6007F1200300221A6090
:100948005A603B1D00221A605A609A60DA601A6188
:100958005A619A612C4B2D4A1A602B4B07225A6018
:10096800294B00229A60284B40F2F312DA60264B9A
:1009780000221A61244B00229A61234801F0DAFE12
:100988000346002B01D000F00BF94FF48053BB62F3
:1009980007F1280319461C4802F0FEFB0346002B0A
:1009A80001D000F0FDF8184801F013FF0346002BB2
:1009B80001D000F0F5F800233B6200237B6207F1C9
:1009C80020031946104803F0CBF80346002B01D04A
:1009D80000F0E6F860237B60F923BB600023FB602E
:1009E80000237B613B1D00221946074802F012FBD9
:1009F8000346002B01D000F0D3F8034800F0D6F9E5
:100A080000BF3837BD4680BDCC0000200004004040
:100A180080B58EB000AF07F1280300221A605A6033
:100A28009A60DA6007F1200300221A605A603B1DC1
:100A380000221A605A609A60DA601A615A619A61F3
:100A48002C4B2D4A1A602B4B07225A60294B002247
:100A58009A60284BC722DA60264B00221A61254B80
:100A680000229A61234801F065FE0346002B01D05D
:100A780000F096F84FF48053BB6207F1280319463B
:100A88001C4802F089FB0346002B01D000F088F8CF
:100A9800184801F09EFE0346002B01D000F080F8B4
:100AA80000233B6200237B6207F1200319461148AB
:100AB80003F056F80346002B01D000F071F86023CC
:100AC8007B606423BB600023FB6000237B613B1DCC
:100AD80000221946074802F09DFA0346002B01D070
:100AE80000F05EF8034800F061F900BF3837BD46F2
:100AF80080BD00BF300000200008004080B487B0EF
:100B080000AF00237B61254B1B6B244A43F0800315
:100B18001363224B1B6B03F080037B617B6900230B
:100B28003B611E4B1B6B1D4A43F0010313631B4BB8
:100B38001B6B03F001033B613B690023FB60174B10
:100B48001B6B164A43F010031363144B1B6B03F023
:100B58001003FB60FB680023BB60104B1B6B0F4A44
:100B680043F0080313630D4B1B6B03F00803BB60D2
:100B7800BB6800237B60094B1B6B084A43F00203E8
:100B88001363064B1B6B03F002037B607B6800BF9B
:100B98001C37BD465DF8047B704700BF0038024033
:100BA80080B400AF72B600BFFEE7000080B483B027
:100BB80000AF00237B60104B5B6C0F4A43F480430B
:100BC80053640D4B5B6C03F480437B607B680023AC
:100BD8003B60094B1B6C084A43F080531364064B77
:100BE8001B6C03F080533B603B6800BF0C37BD466D
:100BF8005DF8047B704700BF0038024080B58AB0BA
:100C080000AF786007F1140300221A605A609A60F6
:100C1800DA601A617B681B68194A93422BD100235A
:100C28003B61184B1B6B174A43F002031363154BC8
:100C38001B6B03F002033B613B69C0237B611223FA
:100C4800BB610023FB6103233B6204237B6207F142
:100C5800140319460C4800F03DFB0023FB60094BC8
:100C68001B6C084A43F400131364064B1B6C03F413
:100C78000013FB60FB6800BF2837BD4680BD00BF7E
:100C880000540040003802400004024080B58CB097
:100C980000AF786007F11C0300221A605A609A605E
:100CA800DA601A617B681B683B4A934235D100239E
:100CB800BB613A4B5B6C394A43F001035364374BD1
:100CC8005B6C03F00103BB61BB6900237B61334BA1
:100CD8001B6B324A43F010031363304B1B6B03F05A
:100CE80010037B617B694FF40073FB6102233B6255
:100CF80000237B620023BB620123FB6207F11C0314
:100D08001946274800F0E6FA002200211B2000F0CF
:100D1800AAFA1B2000F0C3FA3AE07B681B68B3F11B
:100D2800804F0ED100233B611C4B1B6C1B4A43F0C8
:100D380001031364194B1B6C03F001033B613B690E
:100D480026E07B681B68174A93420ED10023FB609C
:100D5800124B1B6C114A43F0020313640F4B1B6CBC
:100D680003F00203FB60FB6812E07B681B680E4A15
:100D780093420DD10023BB60084B1B6C074A43F01C
:100D880004031364054B1B6C03F00403BB60BB68CE
:100D980000BF3037BD4680BD00000140003802402A
:100DA80000100240000400400008004080B58AB0EE
:100DB80000AF786007F1140300221A605A609A6045
:100DC800DA601A617B681B68B3F1804F1ED100237B
:100DD8003B61344B1B6B334A43F001031363314BC4
:100DE8001B6B03F001033B613B6901237B61022319
:100DF800BB610023FB6100233B6201237B6207F197
:100E080014031946284800F065FA47E07B681B6818
:100E1800264A93421ED10023FB60224B1B6B214ABA
:100E280043F0010313631F4B1B6B03F00103FB60CB
:100E3800FB6840237B610223BB610023FB61002325
:100E48003B6202237B6207F114031946164800F03F
:100E580041FA23E07B681B68154A93421ED10023A0
:100E6800BB60104B1B6B0F4A43F0080313630D4B19
:100E78001B6B03F00803BB60BB684FF480537B61B6
:100E88000223BB610023FB6100233B6202237B62D8
:100E980007F114031946074800F01CFA00BF283769
:100EA800BD4680BD003802400000024000040040FA
:100EB80000080040000C024080B400AFFEE780B498
:100EC80000AFFEE780B400AFFEE780B400AFFEE7F6
:100ED80080B400AFFEE780B400AF00BFBD465DF848
:100EE800047B704780B400AF00BFBD465DF8047B4B
:100EF800704780B400AF00BFBD465DF8047B704703
:100F080080B500AF00F090F800BF80BD80B400AF9E
:100F1800064BD3F88830054A43F47003C2F888308A
:100F280000BFBD465DF8047B704700BF00ED00E0E0
:100F3800DFF834D00D480E490E4A002302E0D45899
:100F4800C4500433C4188C42F9D30B4A0B4C002309
:100F580001E013600432A242FBD3FFF7D7FF02F08F
:100F680081FEFFF73DFB70470000022000000020D3
:100F78000C000020043D00080C000020BC010020EB
:100F8800FEE7000080B500AF0E4B1B680D4A43F426
:100F9800007313600B4B1B680A4A43F480631360A9
:100FA800084B1B68074A43F480731360032000F062
:100FB8004FF90F2000F008F8FFF7F8FD0023184656
:100FC80080BD00BF003C024080B582B000AF7860B1
:100FD800124B1A68124B1B7819464FF47A73B3FBFD
:100FE800F1F3B2FBF3F3184600F067F90346002B60
:100FF80001D001230EE07B680F2B0AD80022796804
:101008004FF0FF3000F02FF9064A7B681360002389
:1010180000E0012318460837BD4680BD00000020C7
:10102800080000200400002080B400AF064B1B78A5
:101038001A46064B1B681344044A136000BFBD469A
:101048005DF8047B704700BF08000020B80100204D
:1010580080B400AF034B1B681846BD465DF8047B9F
:10106800704700BFB801002080B584B000AF786039
:10107800FFF7EEFFB8607B68FB60FB68B3F1FF3FEA
:1010880005D00A4B1B781A46FB681344FB6000BF67
:10109800FFF7DEFF0246BB68D31AFA689A42F7D810
:1010A80000BF00BF1037BD4680BD00BF080000204C
:1010B80080B485B000AF78607B6803F00703FB60FD
:1010C8000C4BDB68BB60BA684FF6FF031340BB608C
:1010D800FB681A02BB68134343F0BF6343F4003351
:1010E800BB60044ABB68D36000BF1437BD465DF8D7
:1010F800047B704700ED00E080B400AF044BDB6870
:101108001B0A03F007031846BD465DF8047B7047C9
:1011180000ED00E080B483B000AF0346FB7197F99F
:101128000730002B0BDBFB7903F01F02074997F907
:1011380007305B09012000FA02F241F8232000BFC2
:101148000C37BD465DF8047B704700BF00E100E046
:1011580080B483B000AF03463960FB7197F907305C
:10116800002B0ADB3B68DAB20C4997F90730120109
:10117800D2B20B4483F800230AE03B68DAB208498C
:10118800FB7903F00F03043B1201D2B20B441A7629
:1011980000BF0C37BD465DF8047B704700E100E0F6
:1011A80000ED00E080B489B000AFF860B9607A6003
:1011B800FB6803F00703FB61FB69C3F10703042B1A
:1011C80028BF0423BB61FB690433062B02D9FB69E2
:1011D800033B00E000237B614FF0FF32BB6902FA5A
:1011E80003F3DA43BB681A407B699A404FF0FF313A
:1011F8007B6901FA03F3D9437B680B401343184614
:101208002437BD465DF8047B7047000080B582B086
:1012180000AF78607B68013BB3F1807F01D3012385
:101228000FE00A4A7B68013B53600F214FF0FF3003
:10123800FFF78EFF054B00229A60044B07221A60C5
:10124800002318460837BD4680BD00BF10E000E007
:1012580080B582B000AF78607868FFF729FF00BFDB
:101268000837BD4680BD80B586B000AF0346B9607B
:101278007A60FB7300237B61FFF73EFF78617A6831
:10128800B9687869FFF78EFF024697F90F30114663
:101298001846FFF75DFF00BF1837BD4680BD80B513
:1012A80082B000AF0346FB7197F907301846FFF785
:1012B80031FF00BF0837BD4680BD80B582B000AFA2
:1012C80078607868FFF7A2FF034618460837BD46DE
:1012D80080BD000080B489B000AF78603960002319
:1012E8007B6100233B610023BB610023FB6159E163
:1012F8000122FB6902FA03F37B613B681B687A6988
:1013080013403B613A697B699A4240F048813B68E7
:101318005B6803F00303012B05D03B685B6803F0AF
:101328000303022B30D17B689B68BB61FB695B00C0
:10133800032202FA03F3DB43BA691340BB613B683B
:10134800DA68FB695B0002FA03F3BA691343BB610D
:101358007B68BA699A607B685B68BB610122FB693C
:1013680002FA03F3DB43BA691340BB613B685B686D
:101378001B0903F00102FB6902FA03F3BA6913437C
:10138800BB617B68BA695A603B685B6803F003031A
:10139800032B17D07B68DB68BB61FB695B0003220A
:1013A80002FA03F3DB43BA691340BB613B689A68EE
:1013B800FB695B0002FA03F3BA691343BB617B68FC
:1013C800BA69DA603B685B6803F00303022B23D138
:1013D800FB69DA087B68083253F82230BB61FB6985
:1013E80003F007039B000F2202FA03F3DB43BA69F9
:1013F8001340BB613B681A69FB6903F007039B0054
:1014080002FA03F3BA691343BB61FB69DA087B6824
:101418000832B96943F822107B681B68BB61FB6915
:101428005B00032202FA03F3DB43BA691340BB6192
:101438003B685B6803F00302FB695B0002FA03F395
:10144800BA691343BB617B68BA691A603B685B6819
:1014580003F44033002B00F0A2800023FB60574BBD
:101468005B6C564A43F480435364544B5B6C03F4FF
:101478008043FB60FB68524AFB699B08023352F8C1
:101488002330BB61FB6903F003039B000F2202FAC0
:1014980003F3DB43BA691340BB617B68494A934253
:1014A80019D07B68484A934213D07B68474A9342D5
:1014B8000DD07B68464A934207D07B68454A9342E1
:1014C80001D1042308E0072306E0032304E00223F4
:1014D80002E0012300E00023FA6902F0030292000F
:1014E8009340BA691343BB613549FB699B080233D2
:1014F800BA6941F82320384B1B68BB613B69DB4361
:10150800BA691340BB613B685B6803F48033002B06
:1015180003D0BA693B691343BB612F4ABB691360A7
:101528002D4B5B68BB613B69DB43BA691340BB6108
:101538003B685B6803F40033002B03D0BA693B694E
:101548001343BB61244ABB695360234B9B68BB614F
:101558003B69DB43BA691340BB613B685B6803F4D2
:101568008013002B03D0BA693B691343BB611A4A45
:10157800BB699360184BDB68BB613B69DB43BA69A5
:101588001340BB613B685B6803F40013002B03D076
:10159800BA693B691343BB610F4ABB69D360FB69F6
:1015A8000133FB61FB690F2B7FF6A2AE00BF00BFC2
:1015B8002437BD465DF8047B704700BF0038024001
:1015C80000380140000002400004024000080240C8
:1015D800000C024000100240003C014080B584B07D
:1015E80000AF78607B68002B01D101232BE17B6879
:1015F80093F83D30DBB2002B06D17B68002283F8DC
:101608003C207868FFF7FAFA7B68242283F83D20AB
:101618007B681B681A687B681B6822F001021A60E5
:101628007B681B681A687B681B6842F400421A6072
:101638007B681B681A687B681B6822F400421A6082
:1016480001F064F8F8607B685B68814A934207D8C8
:10165800FB68804A934294BF01230023DBB206E073
:10166800FB687D4A934294BF01230023DBB2002B21
:1016780001D00123E7E0FB68784AA2FB03239B0C17
:10168800BB607B681B685B6823F03F017B681B6855
:10169800BA680A435A607B681B681B6A23F03F01DB
:1016A8007B685B686A4A934202D8BB68013309E0E9
:1016B800BB684FF4967202FB03F3694AA2FB03234B
:1016C8009B0901337A6812680B4313627B681B68B5
:1016D800DB6923F44F4222F0FF027B685B685C49B8
:1016E8008B4219D8FB68591E7B685B685B00B1FBAD
:1016F800F3F3591C40F6FC730B40002B0AD0FB682F
:10170800591E7B685B685B00B1FBF3F30133C3F3DD
:101718000B0351E004234FE07B689B68002B11D139
:10172800FB68581E7B6859680B465B000B44B0FB8E
:10173800F3F30133C3F30B03002B0CBF0123002386
:10174800DBB212E0FB68581E7B6859680B469B00A9
:101758000B4499000B44B0FBF3F30133C3F30B03C1
:10176800002B0CBF01230023DBB2002B01D0012387
:1017780022E07B689B68002B0ED1FB68581E7B68B3
:1017880059680B465B000B44B0FBF3F30133C3F31A
:101798000B0343F400430FE0FB68581E7B6859684D
:1017A8000B469B000B4499000B44B0FBF3F3013349
:1017B800C3F30B0343F44043796809681343CB61CF
:1017C8007B681B681B6823F0C0017B68DA697B684B
:1017D8001B6A1A437B681B680A431A607B681B688C
:1017E8009B6823F4034323F0FF037A6811697A683E
:1017F800D26811437A6812680B4393607B681B6850
:10180800DB6823F0FF017B685A697B689B691A4390
:101818007B681B680A43DA607B681B681A687B6808
:101828001B6842F001021A607B6800221A647B6818
:10183800202283F83D207B6800221A637B680022FF
:1018480083F83E20002318461037BD4680BD00BFF0
:10185800A08601007F841E00FF083D0083DE1B4335
:10186800D34D621080B588B002AFF8607A601A462E
:101878000B467B8113463B81FFF7EAFB7861FB68E7
:1018880093F83D30DBB2202B40F0E0807B69009379
:10189800192301227049F86800F064F90346002B07
:1018A80001D00223D3E0FB6893F83C30012B01D12F
:1018B8000223CCE0FB68012283F83C20FB681B680C
:1018C8001B6803F00103012B07D0FB681B681A682B
:1018D800FB681B6842F001021A60FB681B681A6803
:1018E800FB681B6822F400621A60FB68212283F8F7
:1018F8003D20FB68102283F83E20FB6800221A6412
:10190800FB687A685A62FB683A895A85FB685B8D7E
:101918009AB2FB681A85FB68504ADA6279897B6952
:101928003A6AF86800F09CF80346002B01D00123BE
:101938008DE000233B61FB681B685B693B61FB68CA
:101948001B689B693B613B6966E07A69396AF8689C
:1019580000F0DEF90346002B0DD0FB681B6C042B4E
:1019680007D1FB681B681A68FB681B6842F40072A1
:101978001A6001236BE0FB685B6A1A78FB681B68D6
:101988001A61FB685B6A5A1CFB685A62FB685B8DCC
:101998009BB2013B9AB2FB685A85FB681B8D013BE1
:1019A8009AB2FB681A85FB681B685B6903F004033D
:1019B800042B1BD1FB681B8D002B17D0FB685B6ABF
:1019C8001A78FB681B681A61FB685B6A5A1CFB681B
:1019D8005A62FB685B8D9BB2013B9AB2FB685A85E1
:1019E800FB681B8D013B9AB2FB681A857A69396AD4
:1019F800F86800F0CEF90346002B0DD0FB681B6C8D
:101A0800042B07D1FB681B681A68FB681B6842F443
:101A180000721A6001231AE0FB681B8D002B94D119
:101A2800FB681B681A68FB681B6842F400721A603E
:101A3800FB68202283F83D20FB68002283F83E20C3
:101A4800FB68002283F83C20002300E002231846AC
:101A58001837BD4680BD00BF020010000000FFFF20
:101A680080B588B002AFF8607A603B600B467B8136
:101A7800FB68DB6A7B617B69082B06D07B69012BDD
:101A880003D07B6913F5803F08D1FB681B681A688F
:101A9800FB681B6842F480721A600BE0FB681B6BE2
:101AA800122B07D1FB681B681A68FB681B6842F495
:101AB80080721A603B6800937B6800224FF0011126
:101AC800F86800F04FF80346002B0DD0FB681B6840
:101AD8001B6803F48073B3F5807F03D1FB684FF470
:101AE80000721A64032335E0FB681B69B3F5804F65
:101AF80008D17B89DBB21A46FB681B6802F0FE023C
:101B08001A611BE07B89DB11DBB203F00603DBB251
:101B180063F00F03DAB2FB681B681A613B687A68E6
:101B28000E49F86800F075F80346002B01D0012330
:101B380010E07B89DAB2FB681B681A613B687A6837
:101B48000749F86800F065F80346002B01D0012327
:101B580000E0002318461837BD4680BD0800010084
:101B68000200010080B584B000AFF860B9603B6046
:101B78001346FB7125E03B68B3F1FF3F21D0FFF727
:101B880067FA0246BB69D31A3A689A4202D33B689D
:101B9800002B16D1FB6800221A63FB68202283F809
:101BA8003D20FB68002283F83E20FB681B6C43F055
:101BB8002002FB681A64FB68002283F83C2001239A
:101BC80023E0BB681B0CDBB2012B0DD1FB681B6843
:101BD8005B69DA43BB6813409BB2002B0CBF01233F
:101BE8000023DBB21A460CE0FB681B689B69DA43EA
:101BF800BB6813409BB2002B0CBF01230023DBB250
:101C08001A46FB799A42B6D0002318461037BD46CB
:101C180080BD80B584B000AFF860B9607A603B6081
:101C280051E0FB681B685B6903F48063B3F5806F60
:101C380023D1FB681B681A68FB681B6842F40072B2
:101C48001A60FB681B686FF480625A61FB680022A7
:101C58001A63FB68202283F83D20FB68002283F882
:101C68003E20FB681B6C43F00402FB681A64FB68A7
:101C7800002283F83C20012346E07B68B3F1FF3F54
:101C880021D0FFF7E5F902463B68D31A7A689A42F1
:101C980002D37B68002B16D1FB6800221A63FB680D
:101CA800202283F83D20FB68002283F83E20FB6851
:101CB8001B6C43F02002FB681A64FB68002283F85F
:101CC8003C20012320E0BB681B0CDBB2012B0CD1AC
:101CD800FB681B685B69DA43BB6813409BB2002B47
:101CE80014BF01230023DBB20BE0FB681B689B6970
:101CF800DA43BB6813409BB2002B14BF01230023B7
:101D0800DBB2002B8DD1002318461037BD4680BDAD
:101D180080B584B000AFF860B9607A602DE0F868EB
:101D280000F078F80346002B01D001232DE0BB68B2
:101D3800B3F1FF3F21D0FFF78BF902467B68D31A36
:101D4800BA689A4202D3BB68002B16D1FB680022FE
:101D58001A63FB68202283F83D20FB68002283F881
:101D68003E20FB681B6C43F02002FB681A64FB688A
:101D7800002283F83C20012307E0FB681B685B69AD
:101D880003F08003802BCAD1002318461037BD46C4
:101D980080BD80B584B000AFF860B9607A602DE08E
:101DA800F86800F037F80346002B01D001232DE036
:101DB800BB68B3F1FF3F21D0FFF74AF902467B68C1
:101DC800D31ABA689A4202D3BB68002B16D1FB68B3
:101DD80000221A63FB68202283F83D20FB6800225A
:101DE80083F83E20FB681B6C43F02002FB681A64F2
:101DF800FB68002283F83C20012307E0FB681B688E
:101E08005B6903F00403042BCAD10023184610377A
:101E1800BD4680BD80B483B000AF78607B681B6826
:101E28005B6903F48063B3F5806F1BD17B681B6823
:101E38006FF480625A617B6800221A637B682022F3
:101E480083F83D207B68002283F83E207B681B6C6A
:101E580043F004027B681A647B68002283F83C2004
:101E6800012300E0002318460C37BD465DF8047BCB
:101E78007047000080B586B000AF78607B68002BA3
:101E880001D1012364E27B681B6803F00103002B86
:101E980075D0A34B9B6803F00C03042B0CD0A04B0C
:101EA8009B6803F00C03082B12D19D4B5B6803F46D
:101EB8008003B3F5800F0BD1994B1B6803F40033F3
:101EC800002B5BD07B685B68002B57D101233FE276
:101ED8007B685B68B3F5803F06D1914B1B68904ADD
:101EE80043F4803313601DE07B685B68B3F5A02F73
:101EF8000CD18B4B1B688A4A43F480231360884BB0
:101F08001B68874A43F4803313600BE0844B1B68DB
:101F1800834A23F480331360814B1B68804A23F47F
:101F2800802313607B685B68002B13D0FFF790F861
:101F3800386108E0FFF78CF802463B69D31A642B36
:101F480001D9032304E2764B1B6803F40033002B0A
:101F5800F0D014E0FFF77CF8386108E0FFF778F874
:101F680002463B69D31A642B01D90323F0E16C4B79
:101F78001B6803F40033002BF0D100E000BF7B683E
:101F88001B6803F00203002B63D0654B9B6803F0CA
:101F98000C03002B0BD0624B9B6803F00C03082B3F
:101FA8001CD15F4B5B6803F48003002B16D15C4B9C
:101FB8001B6803F00203002B05D07B68DB68012B4C
:101FC80001D00123C4E1564B1B6823F0F8027B685B
:101FD8001B69DB00524913430B603AE07B68DB68FE
:101FE800002B20D04F4B01221A60FFF731F83861DF
:101FF80008E0FFF72DF802463B69D31A022B01D9F6
:102008000323A5E1464B1B6803F00203002BF0D025
:10201800434B1B6823F0F8027B681B69DB004049CF
:1020280013430B6015E03F4B00221A60FFF710F8CE
:10203800386108E0FFF70CF802463B69D31A022B17
:1020480001D9032384E1364B1B6803F00203002BFC
:10205800F0D17B681B6803F00803002B30D07B6845
:102068005B69002B16D0304B01221A60FEF7F0FF97
:10207800386108E0FEF7ECFF02463B69D31A022BF1
:1020880001D9032364E1264B5B6F03F00203002BA5
:10209800F0D015E0244B00221A60FEF7D9FF386112
:1020A80008E0FEF7D5FF02463B69D31A022B01D997
:1020B80003234DE11A4B5B6F03F00203002BF0D1B1
:1020C8007B681B6803F00403002B00F0A08000234A
:1020D800FB75134B1B6C03F08053002B0FD10023AF
:1020E800BB600F4B1B6C0E4A43F0805313640C4BC0
:1020F8001B6C03F08053BB60BB680123FB750B4B63
:102108001B6803F48073002B21D1084B1B68074A16
:1021180043F480731360FEF79BFF386111E000BF42
:102128000038024000004742800E474200700040DD
:10213800FEF78EFF02463B69D31A022B01D903230F
:1021480006E1854B1B6803F48073002BF0D07B6895
:102158009B68012B06D1814B1B6F804A43F001031A
:1021680013671CE07B689B68052B0CD17B4B1B6FAE
:102178007A4A43F004031367784B1B6F774A43F09E
:10218800010313670BE0754B1B6F744A23F00103BF
:102198001367724B1B6F714A23F0040313677B6844
:1021A8009B68002B15D0FEF753FF38610AE0FEF755
:1021B8004FFF02463B69D31A41F28832934201D954
:1021C8000323C5E0654B1B6F03F00203002BEED021
:1021D80014E0FEF73DFF38610AE0FEF739FF0246DA
:1021E8003B69D31A41F28832934201D90323AFE005
:1021F8005A4B1B6F03F00203002BEED1FB7D012B22
:1022080005D1564B1B6C554A23F0805313647B68E9
:102218009B69002B00F09B80504B9B6803F00C03DC
:10222800082B5CD07B689B69022B41D14C4B002268
:102238001A60FEF70DFF386108E0FEF709FF024655
:102248003B69D31A022B01D9032381E0434B1B6856
:1022580003F00073002BF0D17B68DA697B681B6A96
:102268001A437B685B6A9B011A437B689B6A5B081D
:10227800013B1B041A437B68DB6A1B06374913437F
:102288004B60374B01221A60FEF7E2FE386108E026
:10229800FEF7DEFE02463B69D31A022B01D903235F
:1022A80056E02E4B1B6803F00073002BF0D04EE075
:1022B8002B4B00221A60FEF7CBFE386108E0FEF7D0
:1022C800C7FE02463B69D31A022B01D903233FE01C
:1022D800224B1B6803F00073002BF0D137E07B68BA
:1022E8009B69012B01D1012332E01C4B5B68FB6029
:1022F8007B689B69012B28D0FB6803F480027B680C
:10230800DB699A4221D1FB6803F03F027B681B6AB4
:102318009A421AD1FA6847F6C07313407A68526A2B
:102328009201934211D1FB6803F440327B689B6AA7
:102338005B08013B1B049A4207D1FB6803F07062FB
:102348007B68DB6A1B069A4201D0012300E0002368
:1023580018461837BD4680BD00700040003802405E
:102368006000474280B584B000AF786039607B6810
:10237800002B01D10123CCE0684B1B6803F0070355
:102388003A689A420CD9654B3A68D2B21A70634BD4
:102398001B6803F007033A689A4201D00123B8E0AA
:1023A8007B681B6803F00203002B20D07B681B6846
:1023B80003F00403002B05D0594B9B68584A43F49B
:1023C800E05393607B681B6803F00803002B05D07B
:1023D800534B9B68524A43F460439360504B9B684D
:1023E80023F0F0027B689B684D4913438B607B6840
:1023F8001B6803F00103002B44D07B685B68012B4A
:1024080007D1474B1B6803F40033002B19D1012374
:102418007FE07B685B68022B03D07B685B68032BDB
:1024280007D13F4B1B6803F00073002B09D1012330
:102438006FE03B4B1B6803F00203002B01D1012323
:1024480067E0374B9B6823F003027B685B6834497D
:1024580013438B60FEF7FCFDF8600AE0FEF7F8FD19
:102468000246FB68D31A41F28832934201D903230A
:102478004FE02B4B9B6803F00C027B685B689B006A
:102488009A42EBD1254B1B6803F007033A689A423E
:102498000CD2224B3A68D2B21A70204B1B6803F058
:1024A80007033A689A4201D0012332E07B681B682F
:1024B80003F00403002B08D0194B9B6823F4E05267
:1024C8007B68DB68164913438B607B681B6803F0E5
:1024D8000803002B09D0124B9B6823F460427B68E9
:1024E8001B69DB000E4913438B6000F021F802469C
:1024F8000B4B9B681B0903F00F030A49CB5C22FABC
:1025080003F3094A1360094B1B681846FEF75CFD84
:10251800002318461037BD4680BD00BF003C02406E
:1025280000380240DC3C00080000002004000020C5
:102538002DE9B04384B000AF00237B600023FB602B
:1025480000233B600023BB60674B9B6803F00C03D0
:10255800082B0DD0082B00F2BD80002B02D0042BD5
:1025680003D0B7E0614BBB60B7E0614BBB60B4E040
:102578005D4B5B6803F03F037B605B4B5B6803F478
:102588008003002B4DD0584B5B689B091A464FF0CF
:10259800000340F2FF104FF0000102EA000803EACE
:1025A8000109404649464FF000024FF000034B0135
:1025B80043EAD063420110461946B0EB080061EBCC
:1025C80009014FF000024FF000038B0143EA9063CA
:1025D8008201121A63EB01034FF000004FF0000173
:1025E800D90041EA5271D00002460B4612EB0802AC
:1025F80043EB09034FF000004FF00001590241EA94
:10260800D251500202460B46104619467B681A46BC
:102618004FF00003FDF7DCFD02460B461346FB6056
:102628004AE0314B5B689B091A464FF0000340F2C1
:10263800FF104FF0000102EA000403EA01052046FA
:1026480029464FF000024FF000034B0143EAD063E4
:10265800420110461946001B61EB05014FF00002CC
:102668004FF000038B0143EA90638201121A63EB77
:1026780001034FF000004FF00001D90041EA527108
:10268800D00002460B46121945EB03034FF0000039
:102698004FF00001990241EA9251900202460B461E
:1026A800104619467B681A464FF00003FDF790FD67
:1026B80002460B461346FB600B4B5B681B0C03F092
:1026C800030301335B003B60FA683B68B2FBF3F33A
:1026D800BB6002E0054BBB6000BFBB681846103703
:1026E800BD46BDE8B08300BF003802400024F400B6
:1026F80000127A0080B400AF034B1B681846BD4631
:102708005DF8047B704700BF0000002080B500AF73
:10271800FFF7F0FF0246054B9B689B0A03F007038F
:102728000349CB5C22FA03F3184680BD0038024007
:10273800EC3C000880B582B000AF78607B68002B65
:1027480001D1012341E07B6893F83D30DBB2002BD7
:1027580006D17B68002283F83C207868FEF796FA59
:102768007B68022283F83D207B681A687B68043303
:102778001946104600F00AFE7B68012283F84620BD
:102788007B68012283F83E207B68012283F83F2082
:102798007B68012283F840207B68012283F841206E
:1027A8007B68012283F842207B68012283F843205A
:1027B8007B68012283F844207B68012283F8452046
:1027C8007B68012283F83D20002318460837BD4660
:1027D80080BD80B582B000AF78607B68002B01D1E6
:1027E800012341E07B6893F83D30DBB2002B06D132
:1027F8007B68002283F83C20786800F039F87B6811
:10280800022283F83D207B681A687B6804331946E6
:10281800104600F0BBFD7B68012283F846207B68E8
:10282800012283F83E207B68012283F83F207B68E1
:10283800012283F840207B68012283F841207B68CD
:10284800012283F842207B68012283F843207B68B9
:10285800012283F844207B68012283F845207B68A5
:10286800012283F83D20002318460837BD4680BD65
:1028780080B483B000AF786000BF0C37BD465DF808
:10288800047B704780B584B000AF786039603B68DE
:10289800002B09D17B6893F83E30DBB2012B14BFC3
:1028A80001230023DBB222E03B68042B09D17B68BB
:1028B80093F83F30DBB2012B14BF01230023DBB2B6
:1028C80015E03B68082B09D17B6893F84030DBB2F0
:1028D800012B14BF01230023DBB208E07B6893F8C7
:1028E8004130DBB2012B14BF01230023DBB2002BE4
:1028F80001D0012368E03B68002B04D17B680222E9
:1029080083F83E2013E03B68042B04D17B68022245
:1029180083F83F200BE03B68082B04D17B68022238
:1029280083F8402003E07B68022283F841207B681B
:102938001B6801223968184601F0ECF87B681B68AF
:10294800234A934207D17B681B685A6C7B681B68D3
:1029580042F400425A647B681B681D4A934218D0AF
:102968007B681B68B3F1804F13D07B681B68194ADA
:1029780093420ED07B681B68174A934209D07B6844
:102988001B68164A934204D07B681B68144A93421A
:1029980011D17B681B689B6803F00703FB60FB6829
:1029A800062B10D07B681B681A687B681B6842F08E
:1029B80001021A6007E07B681B681A687B681B685D
:1029C80042F001021A60002318461037BD4680BD48
:1029D800000001400004004000080040000C0040D6
:1029E8000040014080B582B000AF78607B68002B62
:1029F80001D1012341E07B6893F83D30DBB2002B25
:102A080006D17B68002283F83C20786800F039F80A
:102A18007B68022283F83D207B681A687B68043350
:102A28001946104600F0B2FC7B68012283F8462064
:102A38007B68012283F83E207B68012283F83F20CF
:102A48007B68012283F840207B68012283F84120BB
:102A58007B68012283F842207B68012283F84320A7
:102A68007B68012283F844207B68012283F8452093
:102A78007B68012283F83D20002318460837BD46AD
:102A880080BD80B483B000AF786000BF0C37BD460E
:102A98005DF8047B7047000080B584B000AF7860B3
:102AA80039600023FB733B68002B04D17B6893F8E3
:102AB8003E30DBB213E03B68042B04D17B6893F80B
:102AC8003F30DBB20BE03B68082B04D17B6893F8FE
:102AD8004030DBB203E07B6893F84130DBB2BB7374
:102AE8003B68002B04D17B6893F84230DBB213E0DB
:102AF8003B68042B04D17B6893F84330DBB20BE0CE
:102B08003B68082B04D17B6893F84430DBB203E0C0
:102B18007B6893F84530DBB27B73BB7B012B02D11A
:102B28007B7B012B01D00123C2E03B68002B04D141
:102B38007B68022283F83E2013E03B68042B04D113
:102B48007B68022283F83F200BE03B68082B04D106
:102B58007B68022283F8402003E07B68022283F826
:102B680041203B68002B04D17B68022283F8422075
:102B780013E03B68042B04D17B68022283F84320CE
:102B88000BE03B68082B04D17B68022283F84420C1
:102B980003E07B68022283F845203B680C2B41D870
:102BA80001A252F823F000BFE52B00082D2C0008E5
:102BB8002D2C00082D2C0008F72B00082D2C0008C0
:102BC8002D2C00082D2C0008092C00082D2C00089D
:102BD8002D2C00082D2C00081B2C00087B681B6876
:102BE800DA687B681B6842F00202DA601DE07B68E5
:102BF8001B68DA687B681B6842F00402DA6014E03C
:102C08007B681B68DA687B681B6842F00802DA6038
:102C18000BE07B681B68DA687B681B6842F010026F
:102C2800DA6002E00123FB7300BFFB7B002B3ED17F
:102C38007B681B6801223968184600F06BFF7B68C7
:102C48001B681D4A934218D07B681B68B3F1804FFC
:102C580013D07B681B68194A93420ED07B681B68A7
:102C6800174A934209D07B681B68164A934204D0DE
:102C78007B681B68144A934211D17B681B689B6868
:102C880003F00703BB60BB68062B10D07B681B688A
:102C98001A687B681B6842F001021A6007E07B68CB
:102CA8001B681A687B681B6842F001021A60FB7B8C
:102CB80018461037BD4680BD0000014000040040A2
:102CC80000080040000C00400040014080B582B080
:102CD80000AF78607B681B681B6903F00203022B56
:102CE80022D17B681B68DB6803F00203022B1BD12F
:102CF8007B681B686FF002021A617B6801221A77F1
:102D08007B681B689B6903F00303002B03D078687A
:102D180000F01DFB05E0786800F00FFB786800F014
:102D280020FB7B6800221A777B681B681B6903F00D
:102D38000403042B22D17B681B68DB6803F00403BF
:102D4800042B1BD17B681B686FF004021A617B6837
:102D580002221A777B681B689B6903F44073002B77
:102D680003D0786800F0F3FA05E0786800F0E5FA37
:102D7800786800F0F6FA7B6800221A777B681B688F
:102D88001B6903F00803082B22D17B681B68DB68EA
:102D980003F00803082B1BD17B681B686FF008023F
:102DA8001A617B6804221A777B681B68DB6903F069
:102DB8000303002B03D0786800F0C9FA05E07868AF
:102DC80000F0BBFA786800F0CCFA7B6800221A772A
:102DD8007B681B681B6903F01003102B22D17B68EA
:102DE8001B68DB6803F01003102B1BD17B681B6882
:102DF8006FF010021A617B6808221A777B681B68DB
:102E0800DB6903F44073002B03D0786800F09FFA65
:102E180005E0786800F091FA786800F0A2FA7B681B
:102E280000221A777B681B681B6903F00103012BDA
:102E38000ED17B681B68DB6803F00103012B07D107
:102E48007B681B686FF001021A61786800F06BFA02
:102E58007B681B681B6903F08003802B0ED17B689D
:102E68001B68DB6803F08003802B07D17B681B6835
:102E78006FF080021A61786800F0EAFE7B681B68D0
:102E88001B6903F04003402B0ED17B681B68DB688D
:102E980003F04003402B07D17B681B686FF04002AA
:102EA8001A61786800F067FA7B681B681B6903F091
:102EB8002003202B0ED17B681B68DB6803F02003FE
:102EC800202B07D17B681B686FF020021A61786895
:102ED80000F0B4FE00BF0837BD4680BD80B586B09F
:102EE80000AFF860B9607A600023FB75FB6893F85F
:102EF8003C30012B01D1022388E0FB68012283F8D2
:102F08003C207B68002B1BD1FB681868BB681968DC
:102F1800BB685A68BB68DB6800F044FCFB681B6848
:102F28009A69FB681B6822F00C029A61FB681B68AF
:102F38009969BB689A68FB681B680A439A6160E0F4
:102F48007B68042B1CD1FB681868BB681968BB68D0
:102F58005A68BB68DB6800F0BCFCFB681B689A69B0
:102F6800FB681B6822F440629A61FB681B689969D8
:102F7800BB689B681A02FB681B680A439A6140E0B9
:102F88007B68082B1BD1FB681868BB681968BB688D
:102F98005A68BB68DB6800F009FDFB681B68DA69E2
:102FA800FB681B6822F00C02DA61FB681B68D969B0
:102FB800BB689A68FB681B680A43DA6121E07B6892
:102FC8000C2B1CD1FB681868BB681968BB685A6869
:102FD800BB68DB6800F026FDFB681B68DA69FB68E4
:102FE8001B6822F44062DA61FB681B68D969BB6818
:102FF8009B681A02FB681B680A43DA6101E0012337
:10300800FB75FB68002283F83C20FB7D18461837C7
:10301800BD4680BD80B586B000AFF860B9607A6003
:103028000023FB75FB6893F83C30012B01D1022388
:10303800AEE0FB68012283F83C207B680C2B00F291
:103048009F8001A252F823F08530000889310008DA
:103058008931000889310008C53000088931000825
:1030680089310008893100080731000889310008D2
:10307800893100088931000847310008FB681B685E
:10308800B968184600F002FAFB681B689A69FB6881
:103098001B6842F008029A61FB681B689A69FB6822
:1030A8001B6822F004029A61FB681B689969BB6877
:1030B8001A69FB681B680A439A6164E0FB681B682D
:1030C800B968184600F048FAFB681B689A69FB68FB
:1030D8001B6842F400629A61FB681B689A69FB6886
:1030E8001B6822F480629A61FB681B689969BB6857
:1030F8001B691A02FB681B680A439A6143E0FB6874
:103108001B68B968184600F093FAFB681B68DA690F
:10311800FB681B6842F00802DA61FB681B68DA6921
:10312800FB681B6822F00402DA61FB681B68D96936
:10313800BB681A69FB681B680A43DA6123E0FB680D
:103148001B68B968184600F0DDFAFB681B68DA6985
:10315800FB681B6842F40062DA61FB681B68DA6985
:10316800FB681B6822F48062DA61FB681B68D96916
:10317800BB681B691A02FB681B680A43DA6102E034
:103188000123FB7500BFFB68002283F83C20FB7D10
:1031980018461837BD4680BD80B584B000AF78604A
:1031A80039600023FB737B6893F83C30012B01D115
:1031B8000223B4E07B68012283F83C207B6802226A
:1031C80083F83D207B681B689B68BB60BB6823F065
:1031D8007703BB60BB6823F47F43BB607B681B68D5
:1031E800BA689A603B681B68B3F5005F3ED0B3F5D8
:1031F800005F00F28780B3F5805F00F08680B3F54A
:10320800805F7FD8702B1AD0702B7BD8602B50D062
:10321800602B77D8502B3CD0502B73D8402B58D0EC
:10322800402B6FD8302B64D0302B6BD8202B60D03C
:10323800202B67D8002B5CD0102B5AD062E07B681B
:1032480018683B6899683B685A683B68DB6800F017
:1032580041FC7B681B689B68BB60BB6843F07703D5
:10326800BB607B681B68BA689A604FE07B68186827
:103278003B6899683B685A683B68DB6800F02AFC41
:103288007B681B689A687B681B6842F480429A6076
:103298003CE07B6818683B6859683B68DB681A46FD
:1032A80000F0E8FA7B681B685021184600F0F7FB2D
:1032B8002CE07B6818683B6859683B68DB681A46ED
:1032C80000F044FB7B681B686021184600F0E7FBB0
:1032D8001CE07B6818683B6859683B68DB681A46DD
:1032E80000F0C8FA7B681B684021184600F0D7FB3D
:1032F8000CE07B681A683B681B681946104600F0AA
:10330800CEFB03E00123FB7300E000BF7B680122D2
:1033180083F83D207B68002283F83C20FB7B18461D
:103328001037BD4680BD80B483B000AF786000BF61
:103338000C37BD465DF8047B704780B483B000AF9E
:10334800786000BF0C37BD465DF8047B704780B4D9
:1033580083B000AF786000BF0C37BD465DF8047BD2
:10336800704780B483B000AF786000BF0C37BD46AB
:103378005DF8047B704780B483B000AF786000BF0D
:103388000C37BD465DF8047B7047000080B485B0FB
:1033980000AF786039607B681B68FB607B68344AE3
:1033A80093420FD07B68B3F1804F0BD07B68314AD2
:1033B800934207D07B68304A934203D07B682F4AF8
:1033C800934208D1FB6823F07003FB603B685B689D
:1033D800FA681343FB607B68254A93421BD07B68DD
:1033E800B3F1804F17D07B68224A934213D07B6891
:1033F800214A93420FD07B68204A93420BD07B68C6
:103408001F4A934207D07B681E4A934203D07B68C9
:103418001D4A934208D1FB6823F44073FB603B6864
:10342800DB68FA681343FB60FB6823F080023B68A3
:103438005B691343FB607B68FA681A603B689A68AB
:103448007B68DA623B681A687B689A627B68084A1C
:10345800934203D13B681A697B681A637B6801222F
:103468005A6100BF1437BD465DF8047B704700BF42
:10347800000001400004004000080040000C00402B
:1034880000400140004401400048014080B487B03A
:1034980000AF786039607B681B6A23F001027B68A3
:1034A8001A627B681B6A7B617B685B683B617B682F
:1034B8009B69FB60FB6823F07003FB60FB6823F0EB
:1034C8000303FB603B681B68FA681343FB607B6976
:1034D80023F002037B613B689B687A6913437B6135
:1034E8007B681C4A93420CD17B6923F008037B61FB
:1034F8003B68DB687A6913437B617B6923F00403CB
:103508007B617B68134A934211D13B6923F4807332
:103518003B613B6923F400733B613B685B693A6933
:1035280013433B613B689B693A6913433B617B6882
:103538003A695A607B68FA689A613B685A687B689E
:103548005A637B687A691A6200BF1C37BD465DF80A
:10355800047B70470000014080B487B000AF7860FA
:1035680039607B681B6A23F010027B681A627B68EB
:103578001B6A7B617B685B683B617B689B69FB605E
:10358800FB6823F4E043FB60FB6823F44073FB60B3
:103598003B681B681B02FA681343FB607B6923F0D6
:1035A80020037B613B689B681B017A6913437B613D
:1035B8007B681E4A93420DD17B6923F080037B61AF
:1035C8003B68DB681B017A6913437B617B6923F0E5
:1035D80040037B617B68154A934213D13B6923F40E
:1035E80080633B613B6923F400633B613B685B6933
:1035F8009B003A6913433B613B689B699B003A69AE
:1036080013433B617B683A695A607B68FA689A6140
:103618003B685A687B689A637B687A691A6200BF5C
:103628001C37BD465DF8047B704700BF00000140B1
:1036380080B487B000AF786039607B681B6A23F478
:1036480080727B681A627B681B6A7B617B685B6837
:103658003B617B68DB69FB60FB6823F07003FB6000
:10366800FB6823F00303FB603B681B68FA6813439D
:10367800FB607B6923F400737B613B689B681B02DA
:103688007A6913437B617B681D4A93420DD17B693C
:1036980023F400637B613B68DB681B027A69134390
:1036A8007B617B6923F480637B617B68144A934266
:1036B80013D13B6923F480533B613B6923F40053E6
:1036C8003B613B685B691B013A6913433B613B689B
:1036D8009B691B013A6913433B617B683A695A60ED
:1036E8007B68FA68DA613B685A687B68DA637B68EA
:1036F8007A691A6200BF1C37BD465DF8047B7047C3
:103708000000014080B487B000AF786039607B6802
:103718001B6A23F480527B681A627B681B6A3B61D0
:103728007B685B687B617B68DB69FB60FB6823F413
:10373800E043FB60FB6823F44073FB603B681B6855
:103748001B02FA681343FB603B6923F400533B6197
:103758003B689B681B033A6913433B617B68104ACB
:10376800934209D17B6923F480437B613B685B69A1
:103778009B017A6913437B617B687A695A607B682D
:10378800FA68DA613B685A687B681A647B683A6948
:103798001A6200BF1C37BD465DF8047B704700BF46
:1037A8000000014080B487B000AFF860B9607A606B
:1037B8003B60FB681B6A23F00102FB681A62FB6826
:1037C8009B697B61FB681B6A3B61FB68244A9342E7
:1037D80013D0FB68B3F1804F0FD0FB68214A9342A6
:1037E8000BD0FB68204A934207D0FB681F4A9342DC
:1037F80003D0FB681E4A934201D1012300E0002355
:10380800002B08D07B6923F003037B617A697B680E
:1038180013437B6103E07B6943F001037B617B69B0
:1038280023F0F0037B613B681B01DBB27A69134329
:103838007B613B6923F00A033B61BB6803F00A0321
:103848003A6913433B61FB687A699A61FB683A6994
:103858001A6200BF1C37BD465DF8047B704700BF85
:10386800000001400004004000080040000C004037
:103878000040014080B487B000AFF860B9607A605A
:10388800FB681B6A7B61FB681B6A23F00102FB680B
:103898001A62FB689B693B613B6923F0F0033B615B
:1038A8007B681B013A6913433B617B6923F00A0378
:1038B8007B617A69BB6813437B61FB683A699A61EB
:1038C800FB687A691A6200BF1C37BD465DF8047B45
:1038D800704780B487B000AFF860B9607A603B6029
:1038E800FB681B6A23F01002FB681A62FB689B697D
:1038F8007B61FB681B6A3B617B6923F440737B61D6
:103908007B681B027A6913437B617B6923F47043EC
:103918007B613B681B039BB27A6913437B613B69FC
:1039280023F0A0033B61BB681B0103F0A0033A69C5
:1039380013433B61FB687A699A61FB683A691A62CA
:1039480000BF1C37BD465DF8047B704780B487B064
:1039580000AFF860B9607A60FB681B6A23F0100258
:10396800FB681A62FB689B697B61FB681B6A3B61A9
:103978007B6923F470437B617B681B037A6913437B
:103988007B613B6923F0A0033B61BB681B013A697B
:1039980013433B61FB687A699A61FB683A691A626A
:1039A80000BF1C37BD465DF8047B704780B487B004
:1039B80000AFF860B9607A603B60FB681B6A23F46B
:1039C8008072FB681A62FB68DB697B61FB681B6AB3
:1039D8003B617B6923F003037B617A697B6813434E
:1039E8007B617B6923F0F0037B613B681B01DBB2E1
:1039F8007A6913437B613B6923F420633B61BB68AD
:103A08001B0203F420633A6913433B61FB687A693C
:103A1800DA61FB683A691A6200BF1C37BD465DF877
:103A2800047B704780B487B000AFF860B9607A60F3
:103A38003B60FB681B6A23F48052FB681A62FB68D0
:103A4800DB697B61FB681B6A3B617B6923F440731C
:103A58007B617B681B027A6913437B617B6923F472
:103A680070437B613B681B039BB27A6913437B619C
:103A78003B6923F420433B61BB681B0303F42043E9
:103A88003A6913433B61FB687A69DA61FB683A6912
:103A98001A6200BF1C37BD465DF8047B704780B4CE
:103AA80085B000AF786039607B689B68FB60FB6815
:103AB80023F07003FB603A68FB68134343F0070385
:103AC800FB607B68FA689A6000BF1437BD465DF8F2
:103AD800047B704780B487B000AFF860B9607A6043
:103AE8003B60FB689B687B617B6923F47F437B6158
:103AF8003B681A027B681A43BB6813437A6913430D
:103B08007B61FB687A699A6000BF1C37BD465DF827
:103B1800047B704780B487B000AFF860B9607A6002
:103B2800BB6803F01F03012202FA03F37B61FB6801
:103B38001A6A7B69DB431A40FB681A62FB681A6AD7
:103B4800BB6803F01F03796801FA03F31A43FB68A3
:103B58001A6200BF1C37BD465DF8047B7047000041
:103B680080B485B000AF786039607B6893F83C30EA
:103B7800012B01D1022350E07B68012283F83C200D
:103B88007B68022283F83D207B681B685B68FB60CA
:103B98007B681B689B68BB60FB6823F07003FB6055
:103BA8003B681B68FA681343FB607B681B68FA680C
:103BB8005A607B681B681C4A934218D07B681B6854
:103BC800B3F1804F13D07B681B68184A93420ED01C
:103BD8007B681B68164A934209D07B681B68154AA4
:103BE800934204D07B681B68134A93420CD1BB688C
:103BF80023F08003BB603B685B68BA681343BB6013
:103C08007B681B68BA689A607B68012283F83D204C
:103C18007B68002283F83C20002318461437BD46F1
:103C28005DF8047B704700BF0000014000040040BD
:103C380000080040000C00400040014080B483B000
:103C480000AF786000BF0C37BD465DF8047B704755
:103C580080B483B000AF786000BF0C37BD465DF814
:103C6800047B704770B50D4D0D4C641BA4100026E5
:103C7800A64209D10B4D0C4C00F020F8641BA4108F
:103C88000026A64205D170BD55F8043B9847013679
:103C9800EEE755F8043B98470136F2E7FC3C00088C
:103CA800FC3C0008FC3C0008003D000802440346B8
:103CB800934200D1704703F8011BF9E7F8B500BF3C
:103CC800F8BC08BC9E467047F8B500BFF8BC08BCF5
:043CD8009E4670474D
:103CDC0000000000000000000102030406070809B0
:083CEC000000000001020304C6
:083CF40014C5FF7F0100000070
:043CFC00BD010008FE
:043D0000990100081D
:0C3D04000024F40010000000010000008A
:0400000508000F39A7
:00000001FF
