:020000040800F2
:1000000000500020D9080008FD0700080308000878
:10001000090800080F080008150800080000000083
:100020000000000000000000000000001B080008A5
:100030002708000800000000330800083F080008F7
:1000400021090008210900082109000821090008E8
:1000500021090008210900082109000821090008D8
:1000600021090008210900082109000821090008C8
:1000700021090008210900082109000821090008B8
:1000800021090008210900084D080008210900087D
:100090002109000821090008210900082109000898
:1000A0002109000821090008210900082109000888
:1000B0002109000821090008210900082109000878
:1000C0002109000821090008210900082109000868
:1000D0002109000821090008210900082109000858
:1000E000210900082109000821090008000000007A
:1000F0000000000000000000000000000000000000
:0C01000000000000000000005FF808F1A3
:10010C0010B5054C237833B9044B13B10448AFF345
:10011C0000800123237010BD880000200000000027
:10012C009C29000808B5034B1BB103490348AFF3E6
:10013C00008008BD000000008C0000209C290008F5
:10014C00034613F8012B002AFBD1181A013870470B
:10015C0080B500AF00F054F8332000F0F9F83220ED
:10016C0000F0F6F8282000F0F3F8012000F0F0F889
:10017C000C2000F0EDF8062000F0EAF800BF80BD7E
:10018C0090B585B000AF78600023FB7309E0FB7B72
:10019C007A6813441B78184600F0FAF8FB7B01339D
:1001AC00FB73FC7B7868FFF7CBFF03469C42EED3D6
:1001BC0000BF00BF1437BD4690BD80B582B000AF04
:1001CC0003460A46FB711346BB71BB79002B07D162
:1001DC00FB7963F07F03DBB2184600F0B9F80AE054
:1001EC00FB794033DBB25BB263F07F035BB2DBB213
:1001FC00184600F0ADF800BF0837BD4680BD0000C2
:10020C0080B588B000AF07F1100300221A605A6065
:10021C009A60DA604B4B9B694A4A43F00403936142
:10022C00484B9B6903F00403FB60FB68454B9B69DF
:10023C00444A43F008039361424B9B6903F0080363
:10024C00BB60BB683F4B9B693E4A43F01003936114
:10025C003C4B9B6903F010037B607B684FF480433D
:10026C003B6101237B610023BB610323FB6107F12D
:10027C0010031946344801F0E5F84FF400433B6194
:10028C0001237B610023BB610323FB6107F1100396
:10029C0019462D4801F0D6F84FF400533B61012369
:1002AC007B610023BB610323FB6107F1100319463B
:1002BC00254801F0C7F800224FF40051224801F004
:1002CC0045FA4FF480533B6101237B610023BB61F2
:1002DC000323FB6107F1100319461C4801F0B2F827
:1002EC004FF400533B6101237B610023BB6103236B
:1002FC00FB6107F110031946144801F0A3F84FF401
:10030C0080433B6101237B610023BB610323FB61C1
:10031C0007F1100319460D4801F094F84FF400430F
:10032C003B6101237B610023BB610323FB6107F16C
:10033C0010031946054801F085F800BF2037BD466B
:10034C0080BD00BF0010024000100140000C0140B5
:10035C0080B582B000AF0346FB7100224FF48041A0
:10036C000A4801F0F3F9FB791B09DBB204211846AA
:10037C0000F02EF8FB7903F00F03DBB204211846D2
:10038C0000F026F800BF0837BD4680BD00100140C4
:10039C0080B582B000AF0346FB7101224FF480415F
:1003AC000A4801F0D3F9FB791B09DBB2042118468A
:1003BC0000F00EF8FB7903F00F03DBB204211846B2
:1003CC0000F006F800BF0837BD4680BD00100140A4
:1003DC0080B584B000AF03460A46FB711346BB716F
:1003EC000023FB7323E0FA79FB7B42FA03F303F05F
:1003FC000103002B0CD1FB7B184A52F82300FB7B2A
:10040C00174A32F813300022194601F09FF90BE01D
:10041C00FB7B124A52F82300FB7B114A32F8133053
:10042C000122194601F092F9FB7B0133FB73FA7B35
:10043C00BB799A42D7D301224FF40041094801F00D
:10044C0085F9012000F0CAFA00224FF4004105485A
:10045C0001F07CF900BF1037BD4680BD00000020C4
:10046C00100000200010014080B582B000AF786011
:10047C007B681A68074B1B689A4206D1786800F0B3
:10048C005FFC03469AB2044B1A8000BF0837BD4686
:10049C0080BD00BFB0000020E000002080B500AFA0
:1004AC0000F03AFA00F02CF800F0B8F800F078F808
:1004BC00FFF74EFE00210120FFF77FFE0B48FFF7F0
:1004CC005FFE0B4800F086FB094800F083FB094BEC
:1004DC001B881A460849094801F020FE0121012019
:1004EC00FFF76BFE0548FFF74BFEF0E7B429000859
:1004FC00B0000020E0000020C0290008E40000202B
:10050C0080B594B000AF07F12803282200211846CB
:10051C0001F0FCFD07F1140300221A605A609A6086
:10052C00DA601A613B1D00221A605A609A60DA6028
:10053C000223BB620123BB631023FB6300237B6498
:10054C0007F12803184601F019F90346002B01D0D6
:10055C0000F0D2F80F237B610023BB610023FB6109
:10056C0000233B6200237B6207F114030021184631
:10057C0001F084FB0346002B01D000F0BDF80223F0
:10058C007B600023FB603B1D184601F0DFFC03463B
:10059C00002B01D000F0B0F800BF5037BD4680BD35
:1005AC0080B584B000AF3B1D00221A605A609A607F
:1005BC00184B194A1A60174B00229A60154B0122EE
:1005CC001A73144B00221A75124B4FF46022DA6125
:1005DC00104B00225A600F4B01221A610D4800F09B
:1005EC0021FA0346002B01D000F086F800237B6033
:1005FC000123BB600723FB603B1D1946054800F037
:10060C0077FC0346002B01D000F076F800BF1037C2
:10061C00BD4680BDB00000200024014080B588B0EC
:10062C0000AF07F1100300221A605A609A60DA607A
:10063C002E4B9B692D4A43F0100393612B4B9B6906
:10064C0003F01003FB60FB68284B9B69274A43F0BF
:10065C0020039361254B9B6903F02003BB60BB68AF
:10066C00224B9B69214A43F0040393611F4B9B6906
:10067C0003F004037B607B681C4B9B691B4A43F0B3
:10068C0008039361194B9B6903F008033B603B68BB
:10069C0000224FF46041164801F058F800224FF444
:1006AC007041144801F052F84FF460433B61012350
:1006BC007B610023BB610223FB6107F11003194628
:1006CC000B4800F0BFFE4FF470433B6101237B618C
:1006DC000023BB610223FB6107F110031946054897
:1006EC0000F0B0FE00BF2037BD4680BD00100240B8
:1006FC0000100140000C014080B400AF72B600BF86
:10070C00FEE7000080B485B000AF154B9B69144A1E
:10071C0043F001039361124B9B6903F00103BB602F
:10072C00BB680F4BDB690E4A43F08053D3610C4B13
:10073C00DB6903F080537B607B680A4B5B68FB6072
:10074C00FB6823F0E063FB60FB6843F00073FB6025
:10075C00044AFB68536000BF1437BD4680BC704729
:10076C00001002400000014080B588B000AF7860F6
:10077C0007F1100300221A605A609A60DA607B68F5
:10078C001B68184A934229D1174B9B69164A43F4AC
:10079C0000739361144B9B6903F40073FB60FB685B
:1007AC00114B9B69104A43F0040393610E4B9B69F8
:1007BC0003F00403BB60BB6801233B6103237B6133
:1007CC0007F110031946094800F03CFE00220221F3
:1007DC00122000F000FE122000F019FE00BF20379E
:1007EC00BD4680BD002401400010024000080140BD
:1007FC0080B400AFFEE780B400AFFEE780B400AF7A
:10080C00FEE780B400AFFEE780B400AFFEE780B433
:10081C0000AF00BFBD4680BC704780B400AF00BFC6
:10082C00BD4680BC704780B400AF00BFBD4680BCE5
:10083C00704780B500AF00F0B5F800BF80BD000078
:10084C0080B500AF024800F087FA00BF80BD00BF42
:10085C00B000002080B586B000AF7860144A154B0C
:10086C00D31A7B617B693B61134B1B68002B02D154
:10087C00114B124A1A60104B1A687B6813443A6980
:10088C009A4207D201F018FC03460C221A604FF072
:10089C00FF3309E0084B1B68FB60074B1A687B6849
:1008AC001344054A1360FB6818461837BD4680BDD3
:1008BC000050002000040000A400002010010020C3
:1008CC0080B400AF00BFBD4680BC70470C480D49DA
:1008DC000D4A002302E0D458C4500433C4188C428F
:1008EC00F9D30A4A0A4C002301E013600432A242F5
:1008FC00FBD3FFF7E5FF01F0E5FBFFF7CFFD7047FA
:10090C000000002088000020282A00088800002011
:10091C000C010020FEE7000080B500AF084B1B68FF
:10092C00074A43F010031360032000F049FD0F2029
:10093C0000F008F8FFF7E6FE0023184680BD00BF64
:10094C000020024080B582B000AF7860124B1A686C
:10095C00124B1B7819464FF47A73B3FBF1F3B2FBCD
:10096C00F3F3184600F061FD0346002B01D0012380
:10097C000EE07B680F2B0AD8002279684FF0FF300D
:10098C0000F029FD064A7B681360002300E0012378
:10099C0018460837BD4680BD1800002020000020F6
:1009AC001C00002080B400AF054B1B781A46054B89
:1009BC001B681344034A136000BFBD4680BC7047DC
:1009CC0020000020F800002080B400AF024B1B6810
:1009DC001846BD4680BC7047F800002080B584B036
:1009EC0000AF7860FFF7F0FFB8607B68FB60FB68D6
:1009FC00B3F1FF3F05D00A4B1B781A46FB68134432
:100A0C00FB6000BFFFF7E0FF0246BB68D31AFA6831
:100A1C009A42F7D800BF00BF1037BD4680BD00BF5B
:100A2C002000002080B586B000AF78600023FB75F5
:100A3C0000233B610023BB600023FB607B68002B21
:100A4C0001D10123BEE07B689B68002B7B689B6A0D
:100A5C00002B09D17B680022DA627B68002283F8C4
:100A6C0024207868FFF780FE786800F093FB03463B
:100A7C00FB757B689B6A03F01003002B40F0998098
:100A8C00FB7D002B40F095807B689B6A23F4885398
:100A9C0023F0020343F002027B689A627B685A6877
:100AAC007B68DB691A437B681B7B5B001343BA686A
:100ABC001343BB607B689B68B3F5807F03D07B6876
:100ACC009B68012B02D14FF4807300E000233A693C
:100ADC0013433B617B681B7D012B19D17B681B7B0E
:100AEC00002B09D17B689B69013B5A033B6913437B
:100AFC0043F400633B610BE07B689B6A43F020028C
:100B0C007B689A627B68DB6A43F001027B68DA627D
:100B1C007B681B685B6823F469417B681B683A69D6
:100B2C000A435A607B681B689A68284B13407A68A2
:100B3C001268B9680B4393607B689B68B3F5807F40
:100B4C0003D07B689B68012B04D17B681B69013B3C
:100B5C001B05FB607B681B68DB6A23F470017B68F8
:100B6C001B68FA680A43DA627B681B689A68184B40
:100B7C001340BA689A420BD17B680022DA627B6818
:100B8C009B6A23F0030343F001027B689A6218E02E
:100B9C007B689B6A23F0120343F010027B689A6215
:100BAC007B68DB6A43F001027B68DA620123FB7528
:100BBC0007E07B689B6A43F010027B689A62012312
:100BCC00FB75FB7D18461837BD4680BDFDF7E1FF70
:100BDC00FE0E1FFF80B584B000AF78600023FB735E
:100BEC007B6893F82430012B01D10223A0E07B68B1
:100BFC00012283F82420786800F072FA0346FB7314
:100C0C00FB7B002B40F08F807B689B6A23F4706326
:100C1C0023F0010343F480727B689A627B681B6843
:100C2C00454A934205D1454B5B6803F47023002B76
:100C3C0015D17B689B6A23F480127B689A627B686F
:100C4C001B685B6803F48063002B26D07B689B6A6F
:100C5C0023F4405343F480527B689A621DE07B6816
:100C6C009B6A43F480127B689A627B681B68334AE8
:100C7C00934204D07B681B682F4A93420DD12F4BB3
:100C8C005B6803F48063002B07D07B689B6A23F4BA
:100C9C00405343F480527B689A627B689B6A03F4EE
:100CAC008053002B06D07B68DB6A23F006027B683E
:100CBC00DA6202E07B680022DA627B68002283F849
:100CCC0024207B681B686FF002021A607B681B682B
:100CDC005A687B681B6842F020025A607B681B686C
:100CEC009B6803F46023B3F5602F13D17B681B68FA
:100CFC00114A934205D1114B5B6803F47023002B0E
:100D0C0008D17B681B689A687B681B6842F4A00258
:100D1C009A600CE07B681B689A687B681B6842F4DD
:100D2C0080129A6003E07B68002283F82420FB7B0E
:100D3C0018461037BD4680BD0028014000240140F4
:100D4C0080B483B000AF78607B681B68DB6C18469E
:100D5C000C37BD4680BC704780B582B000AF786060
:100D6C007B681B685B6803F02003202B40D17B68F9
:100D7C001B681B6803F00203022B39D17B689B6A4A
:100D8C0003F01003002B05D17B689B6A43F40072BF
:100D9C007B689A627B681B689B6803F46023B3F5DD
:100DAC00602F1DD17B681B7B002B19D17B681B68C6
:100DBC005A687B681B6822F020025A607B689B6A29
:100DCC0023F480727B689A627B689B6A03F480537D
:100DDC00002B05D17B689B6A43F001027B689A6209
:100DEC007868FFF741FB7B681B686FF012021A6092
:100DFC007B681B685B6803F08003802B4FD17B689A
:100E0C001B681B6803F00403042B48D17B689B6AA6
:100E1C0003F01003002B05D17B689B6A43F400524E
:100E2C007B689A627B681B689B6803F4E043B3F5AC
:100E3C00E04F12D07B681B685B6803F48063002B67
:100E4C0025D17B681B689B6803F46023B3F5602F86
:100E5C001DD17B681B7B002B19D17B681B685A68E2
:100E6C007B681B6822F080025A607B689B6A23F4C3
:100E7C0080527B689A627B689B6A03F48073002BB8
:100E8C0005D17B689B6A43F001027B689A627868A3
:100E9C0000F0C1F97B681B686FF00C021A607B686C
:100EAC001B685B6803F04003402B14D17B681B6804
:100EBC001B6803F00103012B0DD17B689B6A43F483
:100ECC0080327B689A62786800F009F87B681B684E
:100EDC006FF001021A6000BF0837BD4680BD80B4B8
:100EEC0083B000AF786000BF0C37BD4680BC704744
:100EFC0080B485B000AF786039600023FB730023A9
:100F0C00BB607B6893F82430012B01D10223DCE019
:100F1C007B68012283F824203B685B68062B1CD875
:100F2C007B681B68596B3B685A6813469B001344DB
:100F3C00053B1F2202FA03F3DB4319403B68186898
:100F4C003B685A6813469B001344053B00FA03F2B6
:100F5C007B681B680A435A633CE03B685B680C2B5C
:100F6C001CD87B681B68196B3B685A6813469B003E
:100F7C001344233B1F2202FA03F3DB4319403B6863
:100F8C0018683B685A6813469B001344233B00FACD
:100F9C0003F27B681B680A431A631BE07B681B68BF
:100FAC00D96A3B685A6813469B001344413B1F2285
:100FBC0002FA03F3DB4319403B6818683B685A6834
:100FCC0013469B001344413B00FA03F27B681B68F9
:100FDC000A43DA623B681B68092B1CD97B681B68C7
:100FEC00D9683B681A6813465B0013441E3B072202
:100FFC0002FA03F3DB4319403B6898683B681A68B4
:10100C0013465B0013441E3B00FA03F27B681B681B
:10101C000A43DA6019E07B681B6819693B681A6837
:10102C0013465B001344072202FA03F3DB43194017
:10103C003B6898683B681A6813465B00134400FAD7
:10104C0003F27B681B680A431A613B681B68102B10
:10105C0003D03B681B68112B32D17B681B681D4A7F
:10106C00934225D17B681B689B6803F40003002B1B
:10107C0026D17B681B689A687B681B6842F4000267
:10108C009A603B681B68102B1AD1134B1B68134AD0
:10109C00A2FB03239A0C13469B0013445B00BB601A
:1010AC0002E0BB68013BBB60BB68002BF9D107E0D9
:1010BC007B689B6A43F020027B689A620123FB7376
:1010CC007B68002283F82420FB7B18461437BD462E
:1010DC0080BC7047002401401800002083DE1B43B5
:1010EC0080B584B000AF78600023FB600023BB6048
:1010FC007B681B689B6803F00103012B40D07B6865
:10110C001B689A687B681B6842F001029A601F4B4F
:10111C001B681F4AA2FB03239B0CBB6002E0BB684D
:10112C00013BBB60BB68002BF9D1FFF74DFCF860AD
:10113C001FE0FFF749FC0246FB68D31A022B18D9B3
:10114C007B681B689B6803F00103012B11D07B6843
:10115C009B6A43F010027B689A627B68DB6A43F0FF
:10116C0001027B68DA627B68002283F82420012369
:10117C0007E07B681B689B6803F00103012BD8D147
:10118C00002318461037BD4680BD00BF1800002054
:10119C0083DE1B4380B584B000AF78600023FB6016
:1011AC007B681B689B6803F00103012B2ED17B68C5
:1011BC001B689A687B681B6822F001029A60FFF733
:1011CC0003FCF8601BE0FFF7FFFB0246FB68D31A39
:1011DC00022B14D97B681B689B6803F00103012B5D
:1011EC000DD17B689B6A43F010027B689A627B6826
:1011FC00DB6A43F001027B68DA62012307E07B685B
:10120C001B689B6803F00103012BDCD000231846FC
:10121C001037BD4680BD80B483B000AF786000BF8E
:10122C000C37BD4680BC704780B485B000AF786089
:10123C007B6803F00703FB600C4BDB68BB60BA6890
:10124C004FF6FF031340BB60FB681A02BB681343E5
:10125C0043F0BF6343F40033BB60044ABB68D36004
:10126C0000BF1437BD4680BC704700BF00ED00E0E6
:10127C0080B400AF044BDB681B0A03F0070318466D
:10128C00BD4680BC704700BF00ED00E080B483B069
:10129C0000AF0346FB7197F90730002B0BDBFB7992
:1012AC0003F01F02064997F907305B09012000FA89
:1012BC0002F241F8232000BF0C37BD4680BC7047BA
:1012CC0000E100E080B483B000AF03463960FB71ED
:1012DC0097F90730002B0ADB3B68DAB20C4997F917
:1012EC0007301201D2B20B4483F800230AE03B68AA
:1012FC00DAB20849FB7903F00F03043B1201D2B2B6
:10130C000B441A7600BF0C37BD4680BC704700BF3B
:10131C0000E100E000ED00E080B489B000AFF860BF
:10132C00B9607A60FB6803F00703FB61FB69C3F1EA
:10133C000703042B28BF0423BB61FB690433062B72
:10134C0002D9FB69033B00E000237B614FF0FF32C5
:10135C00BB6902FA03F3DA43BB681A407B699A4013
:10136C004FF0FF317B6901FA03F3D9437B680B40E3
:10137C00134318462437BD4680BC704780B582B0F5
:10138C0000AF78607B68013BB3F1807F01D3012310
:10139C000FE00A4A7B68013B53600F214FF0FF308E
:1013AC00FFF790FF054B00229A60044B07221A604E
:1013BC00002318460837BD4680BD00BF10E000E092
:1013CC0080B582B000AF78607868FFF72DFF00BF62
:1013DC000837BD4680BD80B586B000AF0346B96006
:1013EC007A60FB7300237B61FFF742FF78617A68B8
:1013FC00B9687869FFF790FF024697F90F301146EC
:10140C001846FFF75FFF00BF1837BD4680BD80B59B
:10141C0082B000AF0346FB7197F907301846FFF70F
:10142C0035FF00BF0837BD4680BD80B582B000AF28
:10143C0078607868FFF7A2FF034618460837BD4668
:10144C0080BD000080B48BB000AF786039600023A1
:10145C007B6200233B6269E101227B6A02FA03F39F
:10146C00FB613B681B68FA691340BB61BA69FB6995
:10147C009A4240F058813B685B689A4A93425ED02E
:10148C00984A934275D8984A934258D0964A9342B8
:10149C006FD8964A934252D0944A934269D8944A50
:1014AC0093424CD0924A934263D8924A934246D08C
:1014BC00904A93425DD8122B2AD8122B59D801A2EC
:1014CC0052F823F04B1500082515000837150008B5
:1014DC00791500087F1500087F1500087F15000896
:1014EC007F1500087F1500087F1500087F15000880
:1014FC007F1500087F1500087F1500087F15000870
:10150C007F1500087F1500082D15000841150008EF
:10151C00794A934213D02CE03B68DB683B6229E0AC
:10152C003B68DB6804333B6224E03B68DB680833D0
:10153C003B621FE03B68DB680C333B621AE03B68A4
:10154C009B68002B02D104233B6213E03B689B6831
:10155C00012B05D108233B627B68FA691A6109E00B
:10156C0008233B627B68FA695A6103E000233B6203
:10157C0000E000BFBB69FF2B01D87B6801E07B68F2
:10158C0004337B61BB69FF2B02D87B6A9B0002E0B2
:10159C007B6A083B9B003B617B691A680F213B69A6
:1015AC0001FA03F3DB431A40396A3B6901FA03F38E
:1015BC001A437B691A603B685B6803F08053002B0D
:1015CC0000F0B1804D4B9B694C4A43F00103936191
:1015DC004A4B9B6903F00103BB60BB68484A7B6ABA
:1015EC009B08023352F82330FB607B6A03F0030341
:1015FC009B000F2202FA03F3DB43FA681340FB60F3
:10160C007B68404A934213D07B683F4A93420DD08B
:10161C007B683E4A934207D07B683D4A934201D196
:10162C00032306E0042304E0022302E0012300E08C
:10163C0000237A6A02F0030292009340FA68134383
:10164C00FB602F497B6A9B080233FA6841F8232020
:10165C003B685B6803F48033002B06D02D4B1A6873
:10166C002C49BB6913430B6006E02A4B1A68BB6913
:10167C00DB43284913400B603B685B6803F4003381
:10168C00002B06D0234B5A682249BB6913434B608D
:10169C0006E0204B5A68BB69DB431E4913404B6084
:1016AC003B685B6803F48013002B06D0194B9A68D7
:1016BC001849BB6913438B6006E0164B9A68BB69EB
:1016CC00DB43144913408B603B685B6803F40013E5
:1016DC00002B21D00F4BDA680E49BB691343CB604A
:1016EC0021E000BF00003210000031100000221079
:1016FC000000211000001210000011100010024018
:10170C000000014000080140000C014000100140A5
:10171C0000140140000401400B4BDA68BB69DB4349
:10172C0009491340CB607B6A01337B623B681A68C2
:10173C007B6A22FA03F3002B7FF48EAE00BF00BF4E
:10174C002C37BD4680BC70470004014080B483B088
:10175C0000AF78600B467B8013467B707B78002B48
:10176C0003D07A887B681A6103E07B881A047B6853
:10177C001A6100BF0C37BD4680BC704780B586B07F
:10178C0000AF78607B68002B01D101236CE27B6891
:10179C001B6803F00103002B00F08780924B5B6801
:1017AC0003F00C03042B0CD08F4B5B6803F00C0381
:1017BC00082B12D18C4B5B6803F48033B3F5803F5C
:1017CC000BD1894B1B6803F40033002B6CD07B6866
:1017DC005B68002B68D1012346E27B685B68B3F53C
:1017EC00803F06D1804B1B687F4A43F480331360E3
:1017FC002EE07B685B68002B0CD17B4B1B687A4A14
:10180C0023F480331360784B1B68774A23F48023CE
:10181C0013601DE07B685B68B3F5A02F0CD1724B95
:10182C001B68714A43F4802313606F4B1B686E4A2C
:10183C0043F4803313600BE06B4B1B686A4A23F450
:10184C0080331360684B1B68674A23F48023136052
:10185C007B685B68002B13D0FFF7B6F8386108E0A3
:10186C00FFF7B2F802463B69D31A642B01D9032364
:10187C00FAE15D4B1B6803F40033002BF0D014E04D
:10188C00FFF7A2F8386108E0FFF79EF802463B69C3
:10189C00D31A642B01D90323E6E1534B1B6803F4E1
:1018AC000033002BF0D100E000BF7B681B6803F015
:1018BC000203002B63D04C4B5B6803F00C03002B32
:1018CC000BD0494B5B6803F00C03082B1CD1464B27
:1018DC005B6803F48033002B16D1434B1B6803F079
:1018EC000203002B05D07B681B69012B01D001235F
:1018FC00BAE13D4B1B6823F0F8027B685B69DB00A7
:10190C00394913430B603AE07B681B69002B20D0EC
:10191C00364B01221A60FFF757F8386108E0FFF7E1
:10192C0053F802463B69D31A022B01D903239BE1DE
:10193C002D4B1B6803F00203002BF0D02A4B1B68C5
:10194C0023F0F8027B685B69DB00274913430B60CB
:10195C0015E0264B00221A60FFF736F8386108E0D4
:10196C00FFF732F802463B69D31A022B01D9032345
:10197C007AE11D4B1B6803F00203002BF0D17B684E
:10198C001B6803F00803002B3AD07B689B69002B83
:10199C0019D0174B01221A60FFF716F8386108E0CE
:1019AC00FFF712F802463B69D31A022B01D9032325
:1019BC005AE10D4B5B6A03F00203002BF0D00120BF
:1019CC0000F0A6FA1CE00A4B00221A60FEF7FCFF9E
:1019DC0038610FE0FEF7F8FF02463B69D31A022B81
:1019EC0008D9032340E100BF00100240000042422E
:1019FC00800442429E4B5B6A03F00203002BE9D148
:101A0C007B681B6803F00403002B00F0A680002306
:101A1C00FB75974BDB6903F08053002B0DD1944B76
:101A2C00DB69934A43F08053D361914BDB6903F03C
:101A3C008053BB60BB680123FB758E4B1B6803F4A2
:101A4C008073002B18D18B4B1B688A4A43F480732C
:101A5C001360FEF7B9FF386108E0FEF7B5FF0246E8
:101A6C003B69D31A642B01D90323FDE0814B1B681E
:101A7C0003F48073002BF0D07B68DB68012B06D15C
:101A8C007B4B1B6A7A4A43F0010313622DE07B689F
:101A9C00DB68002B0CD1764B1B6A754A23F00103D3
:101AAC001362734B1B6A724A23F0040313621CE02B
:101ABC007B68DB68052B0CD16D4B1B6A6C4A43F0C1
:101ACC00040313626A4B1B6A694A43F001031362F5
:101ADC000BE0674B1B6A664A23F001031362644BED
:101AEC001B6A634A23F0040313627B68DB68002BD8
:101AFC0015D0FEF769FF38610AE0FEF765FF024674
:101B0C003B69D31A41F28832934201D90323ABE0EB
:101B1C00574B1B6A03F00203002BEED014E0FEF7C8
:101B2C0053FF38610AE0FEF74FFF02463B69D31AB8
:101B3C0041F28832934201D9032395E04C4B1B6A46
:101B4C0003F00203002BEED1FB7D012B05D1484B9A
:101B5C00DB69474A23F08053D3617B68DB69002B38
:101B6C0000F08180424B5B6803F00C03082B61D0C2
:101B7C007B68DB69022B46D13F4B00221A60FEF7D3
:101B8C0023FF386108E0FEF71FFF02463B69D31ABA
:101B9C00022B01D9032367E0354B1B6803F000735C
:101BAC00002BF0D17B681B6AB3F5803F08D1304B1A
:101BBC005B6823F400327B689B682D4913434B60B0
:101BCC002B4B5B6823F474127B68196A7B685B6A25
:101BDC000B43274913434B60274B01221A60FEF736
:101BEC00F3FE386108E0FEF7EFFE02463B69D31ABC
:101BFC00022B01D9032337E01D4B1B6803F0007344
:101C0C00002BF0D02FE01C4B00221A60FEF7DCFEFC
:101C1C00386108E0FEF7D8FE02463B69D31A022B66
:101C2C0001D9032320E0124B1B6803F00073002B37
:101C3C00F0D118E07B68DB69012B01D1012313E0A3
:101C4C000B4B5B68FB60FB6803F480327B681B6AA0
:101C5C009A4206D1FB6803F470127B685B6A9A4265
:101C6C0001D0012300E0002318461837BD4680BD83
:101C7C0000100240007000406000424280B584B009
:101C8C0000AF786039607B68002B01D10123D0E074
:101C9C006A4B1B6803F007033A689A4210D9674BEA
:101CAC001B6823F0070265493B6813430B60634BC9
:101CBC001B6803F007033A689A4201D00123B8E08D
:101CCC007B681B6803F00203002B20D07B681B6829
:101CDC0003F00403002B05D0594B5B68584A43F4BE
:101CEC00E06353607B681B6803F00803002B05D08E
:101CFC00534B5B68524A43F460535360504B5B68E0
:101D0C0023F0F0027B689B684D4913434B607B6862
:101D1C001B6803F00103002B40D07B685B68012B30
:101D2C0007D1474B1B6803F40033002B15D101235B
:101D3C007FE07B685B68022B07D1414B1B6803F08B
:101D4C000073002B09D1012373E03D4B1B6803F09A
:101D5C000203002B01D101236BE0394B5B6823F0AC
:101D6C0003027B685B68364913434B60FEF72CFE1D
:101D7C00F8600AE0FEF728FE0246FB68D31A41F22F
:101D8C008832934201D9032353E02D4B5B6803F057
:101D9C000C027B685B689B009A42EBD1274B1B685B
:101DAC0003F007033A689A4210D2244B1B6823F0C5
:101DBC00070222493B6813430B60204B1B6803F05E
:101DCC0007033A689A4201D0012332E07B681B6812
:101DDC0003F00403002B08D0194B5B6823F4E0627A
:101DEC007B68DB68164913434B607B681B6803F008
:101DFC000803002B09D0124B5B6823F460527B68FC
:101E0C001B69DB000E4913434B6000F021F80246BE
:101E1C000B4B5B681B0903F00F030A49CB5C22FADE
:101E2C0003F3094A1360094B1B681846FEF78AFD39
:101E3C00002318461037BD4680BD00BF002002406D
:101E4C0000100240DC290008180000201C000020B3
:101E5C0090B48AB000AF2A4B3C1D0FCB84E80F0026
:101E6C0040F201233B800023FB610023BB61002374
:101E7C007B6200237B6100233B62224B5B68FB612E
:101E8C00FB6903F00C03042B02D0082B03D02DE0CC
:101E9C001D4B3B622DE0FB699B0C03F00F0307F11C
:101EAC002802134413F8243C7B61FB6903F4803350
:101EBC00002B13D0134B5B685B0C03F0010307F191
:101ECC002802134413F8283CBB617B690E4A02FBC1
:101EDC0003F2BB69B2FBF3F37B6204E07B690B4A50
:101EEC0002FB03F37B627B6A3B6202E0064B3B62C4
:101EFC0000BF3B6A18462837BD4690BC704700BFF0
:101F0C00CC2900080010024000127A0000093D00A4
:101F1C0080B485B000AF78600A4B1B680A4AA2FBFC
:101F2C0003235B0A7A6802FB03F3FB6000BFFB68C8
:101F3C005A1EFA60002BF9D100BF00BF1437BD4602
:101F4C0080BC704718000020D34D621080B586B05D
:101F5C0000AF786000233B610023FB607B681B684B
:101F6C0003F00103002B7DD00023FB754F4BDB6985
:101F7C0003F08053002B0DD14C4BDB694B4A43F0E3
:101F8C008053D361494BDB6903F08053BB60BB6862
:101F9C000123FB75464B1B6803F48073002B18D18F
:101FAC00434B1B68424A43F480731360FEF70CFDED
:101FBC00386108E0FEF708FD02463B69D31A642B32
:101FCC0001D903236DE03A4B1B6803F48073002B9B
:101FDC00F0D0364B1B6A03F44073FB60FB68002B9C
:101FEC002ED07B685B6803F44073FA689A4227D062
:101FFC002E4B1B6A23F44073FB602E4B01221A609C
:10200C002C4B00221A60294AFB681362FB6803F010
:10201C000103002B14D0FEF7D7FC38610AE0FEF761
:10202C00D3FC02463B69D31A41F28832934201D960
:10203C00032336E01D4B1B6A03F00203002BEED08A
:10204C001A4B1B6A23F440727B685B681749134375
:10205C000B62FB7D012B05D1144BDB69134A23F07A
:10206C008053D3617B681B6803F00203002B08D0FC
:10207C000E4B5B6823F440427B689B680B4913430F
:10208C004B607B681B6803F01003002B08D0074BD8
:10209C005B6823F480027B68DB68044913434B6064
:1020AC00002318461837BD4680BD00BF0010024003
:1020BC000070004040044242014B1868704700BF5A
:1020CC002400002070B500260C4D0D4C641BA41090
:1020DC00A64209D100F05CFC00260A4D0A4C641B98
:1020EC00A410A64205D170BD55F8043B98470136A3
:1020FC00EEE755F8043B98470136F2E7202A000832
:10210C00202A0008202A0008242A0008034602443A
:10211C00934200D1704703F8011BF9E70EB46FF03E
:10212C00004100B59CB01DAB029006900791049144
:10213C000848094953F8042B0591006802A901933A
:10214C0000F068F80022029B1A701CB05DF804EBDA
:10215C0003B07047240000200802FFFF2DE9F04770
:10216C008E6882469E420C4690461F4638D88A8915
:10217C0012F4906F32D0256809690133A5EB01097F
:10218C0065694B4405EB450505EBD5756D109D4216
:10219C0038BF1D46530531D5294600F053FB064682
:1021AC0050B90C234FF0FF30CAF80030A38943F02C
:1021BC004003A381BDE8F0874A46216900F0CEFABE
:1021CC00A38923F4906343F08003A38126614E44DA
:1021DC0026603E466561A5EB0905A560BE4200D9A7
:1021EC003E4632464146206800F0C6FAA368226893
:1021FC009B1B32440020A3602260DBE72A4600F0E0
:10220C007BFB06460028E1D15046216900F0CEFA4E
:10221C00C7E700002DE9F04F98468B8907461B064F
:10222C000D4614469DB00ED50B6963B9402100F0E4
:10223C0009FB2860286120B90C233B604FF0FF306C
:10224C00D1E040236B610023099320238DF82930C2
:10225C0030234FF00109CDF80C80DFF8A4818DF804
:10226C002A3023469A4613F8012B0AB1252AF9D1B4
:10227C00BAEB040B0BD05B46224629463846FFF7D7
:10228C006DFF013000F0AA80099A5A4409929AF81D
:10229C000030002B00F0A28000234FF0FF32CDE97C
:1022AC0005230AF1010A049307938DF853301A930E
:1022BC005446052214F8011B514800F041FA049AC7
:1022CC00D8B9D00644BF20238DF85330110744BF32
:1022DC002B238DF853309AF800302A2B15D0544606
:1022EC0000204FF00A0C079A214611F8013B303BB5
:1022FC00092B4ED9B0B1079214E0A0EB080309FAF0
:10230C0003F31343A2460493D2E7039B191D1B68E6
:10231C000391002BBBBF5B4242F002020793079371
:10232C00B8BF049223782E2B0CD163782A2B35D18D
:10233C00039B02341A1D1B680392002BB8BF4FF08D
:10234C00FF330593DFF8C8A003225046217800F034
:10235C00F7F940B14023A0EB0A0003FA00F0049B0C
:10236C0001340343049314F8011B062225488DF80D
:10237C00281000F0E5F9002838D0234B1BBB039B39
:10238C00073323F0070308330393099B3344099362
:10239C0067E70C4601200CFB0232A5E700234FF047
:1023AC000A0C194601340593204610F8012B303ADB
:1023BC00092A03D9002BC5D00591C3E70446012394
:1023CC000CFB0121F0E703AB00932A4638460F4B78
:1023DC0004A9AFF30080421C0646D6D1AB895B063C
:1023EC003FF52CAF09981DB0BDE8F08F03AB0093FF
:1023FC002A463846054B04A900F07CF8EBE700BFF1
:10240C00EC290008F62900080000000069210008EA
:10241C00F22900082DE9F047164699468A680B699F
:10242C0007469342B8BF1346336091F843200C46DD
:10243C00DDF820800AB1013333602368990642BF6E
:10244C00336802333360256815F0060506D104F1B4
:10245C00190AE36832689B1AAB4228DC94F84320D3
:10246C00131E226818BF012392062DD44946384604
:10247C0004F14302C047013020D02368E56803F023
:10248C000603042B18BF002532684FF00006A36822
:10249C0008BFAD1A226908BF25EAE5759342C4BF8F
:1024AC009B1AED181A34B5421AD1002008E001230A
:1024BC00524649463846C047013003D14FF0FF30F1
:1024CC00BDE8F0870135C4E73020E11881F84300FE
:1024DC005A1C94F845102244023382F84310C5E785
:1024EC000123224649463846C0470130E6D0013622
:1024FC00D9E700002DE9FF470C46277E9146782F3F
:10250C0080469A460C9904F1430207D8622F0AD8E8
:10251C00002F00F0D980582F00F0A48004F142065F
:10252C0084F842703AE0A7F16303152BF6D801A0AA
:10253C0050F823F099250008AD250008292500083E
:10254C00292500082925000829250008AD250008A3
:10255C002925000829250008292500082925000817
:10256C00BB260008DD2500089D260008292500084B
:10257C0029250008DD26000829250008DD2500088E
:10258C002925000829250008A52600080B6804F158
:10259C0042061A1D1B680A6084F842300123A4E02D
:1025AC00256808682E0600F104030AD505680B603F
:1025BC00002D03DA2D236D4284F843300A235E4844
:1025CC0019E015F0400F05680B6018BF2DB2EFE74E
:1025DC000B682568181D0860280601D51D6802E0E7
:1025EC006906FBD51D886F2F0CBF08230A235248A0
:1025FC00002184F843106668002EA8BF2168A660ED
:10260C00A4BF21F0040121600DB9002E4DD0164657
:10261C00B5FBF3F103FB1157C75D06F8017D2F469F
:10262C00BB420D46F4D9082B0BD12368DF0708D524
:10263C00236961689942DEBF302306F8013C06F13C
:10264C00FF36921B22614B4621464046CDF800A036
:10265C0003AAFFF7DFFE01304CD14FF0FF3004B07E
:10266C00BDE8F087344884F845700E68236856F846
:10267C00045B1F060E6014D5D90744BF43F020033A
:10268C0023601DB9236823F0200323601023AFE7D8
:10269C00236843F0200323607823284884F84530CE
:1026AC00E3E75E0648BFADB2E6E71646BBE70B684C
:1026BC0026681D1D60690D6035061B6801D5186004
:1026CC0002E07106FBD51880002316462361BAE799
:1026DC000B681A1D0A601E6800213046626800F003
:1026EC002FF808B1801B606063682361002384F8B5
:1026FC004330A8E73246494640462369D04701306B
:10270C00ABD023689B0713D4E068039B9842B8BFF7
:10271C001846A4E70123324649464046D0470130CB
:10272C009BD00135E36803995B1AAB42F2DCEBE713
:10273C00002504F11906F5E7FD2900080E2A00080A
:10274C00034610B5C9B202449342184601D1002089
:10275C0003E0047801338C42F6D110BD0A44914257
:10276C0000F1FF3300D1704710B511F8014B9142C5
:10277C0003F8014FF9D110BD884210B501EB0204EA
:10278C0002D98442234607D8431EA14208D011F82F
:10279C00012B03F8012FF8E7014602448A4200D1CD
:1027AC0010BD13F8014D02F8014DF7E738B5054699
:1027BC00002943D051F8043C0C1F002BB8BFE4187F
:1027CC0000F0D0F81E4A1368104633B963601460E9
:1027DC002846BDE8384000F0CBB8A3420AD921689E
:1027EC006218934201BF1A685B68521822606360DA
:1027FC000460EDE71A465B680BB1A342FAD9116885
:10280C005018A0420BD1206801445018834211602B
:10281C00DED118685B68014411605360D8E702D9B7
:10282C000C232B60D4E7206821188B4201BF196858
:10283C005B680918216063605460C9E738BD00BF4C
:10284C00A8000020F8B5CD1C25F0030508350C2D8B
:10285C0038BF0C25002D064601DBA94203D90C23F9
:10286C0033600020F8BD00F07DF821490A68144659
:10287C009CB9204F3B6823B92146304600F062F8E2
:10288C0038602946304600F05DF8431C23D10C23F8
:10289C003046336000F06CF8E3E723685B1B17D419
:1028AC000B2B03D923601C44256004E06368A2420F
:1028BC000CBF0B605360304600F05AF804F10B006B
:1028CC00231D20F00700C21ACCD01B1AA350C9E755
:1028DC0022466468CCE7C41C24F00304A042E3D075
:1028EC00211A304600F02EF80130DDD1CFE700BFC1
:1028FC00A8000020AC000020F8B5074614460E4690
:10290C0021B91146BDE8F840FFF79CBF22B9FFF78B
:10291C004DFF25462846F8BD00F030F8A0420FD2F6
:10292C0021463846FFF78EFF05460028F2D0314687
:10293C002246FFF713FF31463846FFF737FFE9E72A
:10294C003546E7E738B50023054D044608462B60AD
:10295C00FDF780FF431C02D12B6803B1236038BD07
:10296C00FC000020014800F011B800BF0401002059
:10297C00014800F00CB800BF0401002051F8043CE1
:10298C00181F002BBCBF0B58C018704770477047FE
:10299C00F8B500BFF8BC08BC9E467047F8B500BF40
:0829AC00F8BC08BC9E46704710
:1029B40020564149204C554F4E20000047494120A4
:1029C4005452493A20256400020304050607080905
:1029D4000A0B0C0D0E0F1010000000000000000088
:1029E4000102030406070809232D302B2000686C1C
:1029F4004C0065666745464700303132333435361E
:102A04003738394142434445460030313233343556
:0C2A140036373839616263646566000083
:042A20003101000878
:042A24000D01000898
:102A2800000C0140000C0140000C0140000C01406A
:102A380000100020004000800024F4001000000076
:102A48000100000028000020000000000000000035
:102A5800000000000000000000000000000000006E
:102A6800000000000000000000000000000000005E
:102A7800000000000000000000000000000000004E
:102A8800000000000000000000000000000000003E
:102A9800000000000000000000000000000000002E
:082AA800000000000000000026
:04000005080008D90E
:00000001FF
